:10000000D0090020851500009F4A0000451400001B
:10001000451400004514000045140000451400007C
:100020004514000045140000451400002913000089
:100030004514000045140000D51200008F4A00004E
:100040004515000045150000451500004515000048
:100050004515000045150000451500004515000038
:100060004515000045150000451500004515000028
:100070004515000045150000451500004515000018
:100080004515000045150000451500004515000008
:1000900045150000451500004515000045150000F8
:1000A00045150000451500004515000045150000E8
:1000B00045150000451500004515000045150000D8
:1000C00045150000451500004515000045150000C8
:0C00D00045150000451500004515000016
:1000DC007BB972B90029BEBF00204FF0004106E089
:1000EC0008BF00281CBF6FF000414FF0FF3000F03C
:1000FC003FB8ADF1080C6DE904CE002909DB002BEB
:10010C001ADB00F037F8DDF804E0DDE9022304B077
:10011C007047404261EB4101002B1BDB00F02AF8D9
:10012C00DDF804E0DDE9022304B0404261EB41015B
:10013C00524263EB43037047524263EB430300F0BC
:10014C0019F8DDF804E0DDE9022304B0404261EB6C
:10015C0041017047524263EB430300F00BF8DDF8AA
:10016C0004E0DDE9022304B0524263EB4303704721
:10017C00704700BF2DE9F04F099F154604468E4687
:10018C001E46002B40F0CC808A42B2FA82FC4CD93D
:10019C00BCF1000F0BD0CCF1200801FA0CFE20FAB8
:1001AC0008F802FA0CF548EA0E0E00FA0CF44FEAC5
:1001BC0015491FFA85F8BEFBF9FA210C09FB1AE365
:1001CC000AFB08FB41EA03439B452AD9EB180AF1C9
:1001DC00FF3004D29B4502D9AAF102002B44A3EBB9
:1001EC000B03A4B2B3FBF9F209FB123302FB08F8C0
:1001FC0044EA0344A04516D92C1902F1FF3303D26B
:10020C00A04501D9931E2C44A4EB080443EA0040FA
:10021C0027B124FA0CF400233C607B603146BDE826
:10022C00F08F5046DBE71346EEE702B9FFDEBCF178
:10023C00000F2ED18B1A01264FEA154EAAB2B3FB32
:10024C00FEF8210C0EFB183308FB02F941EA0343BC
:10025C00994561D9EB1808F1FF3004D2994502D9C0
:10026C00A8F102002B44A3EB0903A4B2B3FBFEF1EB
:10027C000EFB11334A4344EA0344A2424ED92C19D3
:10028C0001F1FF3303D2A24201D98B1E2C44A41AD4
:10029C00BCE7CCF1200E02FA0CF521FA0EF901FAAA
:1002AC000CF320FA0EFE4EEA03034FEA154800FA4F
:1002BC000CF4B9FBF8F11FFA85FE08FB1192180C2F
:1002CC0001FB0EF640EA0242964221D9AA1801F12E
:1002DC00FF3003D2964201D9881E2A44921B9BB24E
:1002EC00B2FBF8F908FB192209FB0EFE43EA0243A4
:1002FC009E450FD9EB1809F1FF3604D29E4502D961
:10030C00A9F102062B44A3EB0E0346EA004693E741
:10031C000846E3E74E46F6E74046A4E70B46B6E749
:10032C008B4205D90FB1C7E900010026304675E7AD
:10033C00B3FA83FCBCF1000F0FD18B4201D3824284
:10034C0009D8841A61EB030E0120002F6AD0C7E98B
:10035C00004E002662E76046F7E7CCF1200E03FA68
:10036C000CF322FA0EF521FA0EF41D4301FA0CF3EC
:10037C0020FA0EF10B434FEA154A00FA0CF6B4FBC7
:10038C00FAF91FFA85F80AFB19401C0C09FB08F155
:10039C0044EA0044A14202FA0CF23FD92C1909F1AB
:1003AC00FF3004D2A14202D9A9F102002C44641AF4
:1003BC009BB2B4FBFAF90AFB194409FB08F843EAAF
:1003CC00044188452CD9691809F1FF3304D28845BA
:1003DC0002D9A9F10203294443EA0040A1EB080128
:1003EC00A0FB02894945C2464C4602D306D146457C
:1003FC0004D2B8EB020A69EB0504013897B1B6EBED
:10040C000A0361EB040606FA0EFE23FA0CF34EEA1D
:10041C00030326FA0CF6C7E900369AE74846C6E706
:10042C004B46D9E73E46F9E608B5064803F0AAFF65
:10043C00054803F0B0FD4FF4FA70BDE8084004F035
:10044C00A0BE00BF6C5600004800002008B506484E
:10045C0003F098FF054803F09EFD4FF4FA70BDE8D9
:10046C00084004F08EBE00BF7F56000054000020F0
:10047C0008B511221149124803F07AFD12220F49D6
:10048C00104803F075FD0F4803F085FD13220B494E
:10049C000D4803F06DFD142208490C4803F068FD6B
:1004AC000B4B06490B480D2203F078FD0A4B034910
:1004BC000A480E2203F072FDFEE700BF92560000C0
:1004CC00300000203C000020480000205400002098
:1004DC003504000008000020590400001C00002016
:1004EC000B6801330B60014B1B681847B0170020D9
:1004FC002DE9F04F85B09B460E9CDFF88890012CBF
:10050C00B8BF0124012B0CBF302320231646824692
:10051C008846029301250A270022B6FBF9F30193C2
:10052C000AB9B1451DD8019B414603F13000D047B3
:10053C0001350122019B013F012F09FB13664FF08E
:10054C000A03B9FBF3F9E8D1414606F13000D04774
:10055C00BBF1030F02D1641B002C0EDC05B0BDE80F
:10056C00F08FBC42E6DBBBF1020FE3D841460298A8
:10057C0003920135D047039ADCE741462020D0474F
:10058C00013CE9E700CA9A3B014B1860704700BF79
:10059C00B017002007B50023019302460B46034811
:1005AC0001A903F07FFD03B05DF804FBED0400002E
:1005BC004FF02003EFF3118283F31188BFF36F8F99
:1005CC0006490123C1F840354FF08041C1F8783518
:1005DC0082F31188BFF36F8F0020704700E0014059
:1005EC0030B5002287B00D490D4804F062FE0D4D68
:1005FC000D4900240E23CDE90243CDE90444CDE995
:10060C0000440A4B4FF44072284603F0D1FA0849D3
:10061C00284604F0DEFD204607B030BD4106000040
:10062C0074000020BC000020D0020020550A0000FD
:10063C00AC560000014803F035BA00BF701800201A
:10064C0008B500F061FA094803F0ACFE0423282237
:10065C000748084904F0C4FC074B084A1A604FF4D9
:10066C000040BDE8084000F07FBC00BF6C000020DB
:10067C00A000002010130020B4170020EF4300004E
:10068C00F8B50F4BBFF35B8F002553E8007F43E8B1
:10069C000052002AF9D1BFF35B8F0A4C0A4E361B6D
:1006AC003611B54200DBF8BD63685B792BB123686A
:1006BC00DB6813B139462046984701351034F0E712
:1006CC00640000203055000040550000064BBFF37D
:1006DC005B8F53E8002F013243E800210029F8D149
:1006EC00BFF35B8F704700BF64000020044A054BCA
:1006FC009B1AB1EBD30F34BF52F831000020704776
:10070C00F854000030550000064B4268C31A1B1108
:10071C00013313714268012311605371024A137043
:10072C00704700BF30550000C402002070B5114B5B
:10073C00BFF35B8F53E8005F6A1C43E8002100297C
:10074C00F8D1BFF35B8F2DB90B4C0C4E361B361109
:10075C00B54200DB70BD237B43B123685B6903B1F9
:10076C009847042200212046FFF7CEFF01351034B4
:10077C00EEE700BF68000020305500004055000037
:10078C00164B984237B5044602D3154B98421FD3EB
:10079C00002201A9134802F0BDFE0546D8B901227A
:1007AC00019BBFF35B8F53E8001F43E80020002838
:1007BC00F9D1BFF35B8F019821461F22043004F05E
:1007CC0077F9019C7E2384F8233084F82450043478
:1007DC00204603B030BD044CFAE700BF3053000094
:1007EC00CC5D0000A0000020B456000048B1054BC1
:1007FC00984205D3A03398422CBF002001207047AB
:10080C0000207047101300202DE9F84F534B1B7834
:10081C00044603B960B34FF02003EFF3118683F362
:10082C001188BFF36F8F4E4803F0CCFD054686F35D
:10083C001188BFF36F8F78B1BFF35B8F494B53E8CF
:10084C00002F013A43E800210029F8D1BFF35B8F58
:10085C008CB1284603F09CFE24B9434B1B680BB1AA
:10086C00FFF70EFF3E4803F0ABFD041C18BF01243C
:10087C002046BDE8F88F3D4B1B78DBB92B7ADB07A4
:10088C0018D403F098FE8146284603F061FE2646F4
:10089C002246CC4623464FF0010E1CF8011B09B131
:1008AC0098420ED8324B334ADFF8E0B09B1AC3F3B0
:1008BC00C90AD6B9304E314FBF1B3F114FF000085B
:1008CC0048E0252902D182F00102E6E7002AE4D0B3
:1008DC0041F02007613F192FDFD8732904BF0EFAAE
:1008EC0003F2164301330022D7E7B6FA86F7C7F1B5
:1008FC001F073946284603F02EFE214B984202462C
:10090C0002D3204B984214D31046FFF76FFF80B9E7
:10091C001D4B9A420DD028F03F0343F0010363F3C3
:10092C0007086AF38F1843464A463946584603F07F
:10093C007DFD012303FA07F726EA0706B9E773687A
:10094C005B7923B1336829461B683046984708F118
:10095C0001081036B845F2DB7BE700BFC40200206B
:10096C006C0000206000002064000020C502002004
:10097C0000550000F85400003055000040550000B0
:10098C0030530000CC5D0000B4560000D25600007D
:10099C00264B70B51B68418105469847244CE8608E
:1009AC00BFF35B8F54E8003F013344E80032002A68
:1009BC00F8D1BFF35B8F4FF02003EFF3118683F375
:1009CC001188BFF36F8F1B48294603F0EFFC86F3A9
:1009DC001188BFF36F8F184B1A787AB14FF0200340
:1009EC00EFF3118483F31188BFF36F8F0020FFF7AF
:1009FC000BFF84F31188BFF36F8F70BD0F49236811
:100A0C0009680029F9D0012B06D14FF47A710C48F2
:100A1C00BDE8704003F06ABA0A2BEED1084804F026
:100A2C0054FC0848BDE8704003F03CB8B4170020F3
:100A3C00600000206C000020C5020020280100206E
:100A4C00740000207018002008B5FFF76FFE03F04B
:100A5C0023F80B4B186030B10A4B1B68092B02DDD5
:100A6C00094803F01FF8084C0020FFF7CDFE0028C2
:100A7C00FAD14FF0FF31204603F03AF8F4E700BF0B
:100A8C00280100206000002070180020F8B50E4FDF
:100A9C003D7875B90D4C0E4EFFF748FE361B3611DE
:100AAC00B54207DB0020FFF7AFFE0028FAD1012387
:100ABC003B70F8BD63685B791BB1236820461B69EA
:100ACC00984701351034EBE7C50200203055000083
:100ADC004055000007B504380190BFF35B8F50E818
:100AEC00003F5A1E40E800210029F8D1BFF35B8F6C
:100AFC00012B03D101A9034802F038FD03B05DF8C6
:100B0C0004FB00BFA000002020231A460149024824
:100B1C0004F066BAB01300202C01002037B5002376
:100B2C00094D01930120FFF76FFE0446FFF7CEFD40
:100B3C00002201A9284602F0EDFC08B1002CF1D1ED
:100B4C00019803B030BD00BF2C01002007B5002276
:100B5C0001A90648019202F0DDFC10B1FFF7DEFF9F
:100B6C000190019803B05DF804FB00BF2C0100203C
:100B7C007FB5047A457A019014F001044FEA1515FB
:100B8C000ED0019B1A7A920704D55B69104C039323
:100B9C00039BB3B901A90E4802F0E8FC04B070BD88
:100BAC00002DEED0A5420198EBD9214603F0D3FCE1
:100BBC000646FFF71BFE10B13046FFF78BFF0134E2
:100BCC00F0E71D6803A9204602F0D0FC0395DFE78F
:100BDC002C0100200EB403B503AB014653F8042BD3
:100BEC000448019303F05EFA002002B05DF804EBB8
:100BFC0003B07047C34800002DE9F04F85B011F0E9
:100C0C000204064690469DF8387001F0010901F087
:100C1C00080507D011F0440F37D11A463249FFF7B7
:100C2C00D9FF0446B9F1000F0AD0304B304953F8C4
:100C3C002720304B3046002A08BF1A46FFF7CAFF60
:100C4C003DB12D4B2D4953F827203046FFF7C2FFFD
:100C5C000546B8F1000F44D0012303FA07F7284BDF
:100C6C0017F0100F274F18BF1F46BDF840109DF806
:100C7C003C00FFF73BFD394602463046FFF7AAFF22
:100C8C002844204405B0BDE8F08F1F4A116831B3E9
:100C9C001E4A4FF4616E1468B3FBF4F34FF47A7C84
:100CAC00B3FBF1F4B4FBFEF20EFB124E01FB143459
:100CBC000CFB04F44FF03C0AB4FBF1FB01FB1B44AE
:100CCC00BEFBFAF30CFB04F4B4FBF1F1CDE901B17A
:100CDC000AFB13E100910E49FFF77CFFA1E70846E0
:100CEC009FE7084FC1E700BF525700006055000056
:100CFC005C5D0000445700007455000077570000FD
:100D0C004E57000049570000480100204C010020BC
:100D1C005B57000038B50C46E107054603D5084A79
:100D2C000849FFF757FFE20608D4A30628464CBF34
:100D3C0005490649BDE83840FFF74CBF38BD00BF38
:100D4C00445700005C5D000036570000355700002A
:100D5C002DE9F0479846089BDD0604460E461746DB
:100D6C0005D499064CBF29492949FFF733FFDFF811
:100D7C00A890002545452ADBDFF8A080DFF8A0907D
:100D8C00DFF894A00025AF422ED9725D494620466B
:100D9C00FFF720FF0135102D1FD11E49DFF8788099
:100DAC00DFF880902046FFF715FF0025AF4227D9CA
:100DBC00725DA2F120035F2B28BF2E2249462046EC
:100DCC00FFF708FF0135102D13D1BDE8F087494618
:100DDC002046FFF7FFFE0135CCE76A07D3D1514619
:100DEC002046FFF7F7FECEE741462046FFF7F2FE1E
:100DFC00D0E76B07DAD141462046FFF7EBFED5E78B
:100E0C0041462046FFF7E6FEDCE700BF3657000000
:100E1C003557000012570000105700000E57000005
:100E2C0008570000145700002DE9F0478B7A13F097
:100E3C00070417468AB005460E460A7A1CD0498923
:100E4C00C3F3C2038909D2430291CDE9004302F0F6
:100E5C000102F3683946FFF7CFFE8146337ADA0791
:100E6C000CD42946304603F0BCFB4CB32246394621
:100E7C002846FFF74FFF23E0A146EFE734BB274698
:100E8C00EB68069306AA3B46A968304603F095FB2F
:100E9C00069A6B681A603AB1AB68134413F8014CAC
:100EAC00A4F10A035C425C41284603F0F7FC069B64
:100EBC001F44002BE4D11CB114492846FFF78AFECD
:100ECC00284603F0EBFC0AB0BDE8F087304603F08F
:100EDC0072FB0F4902462846FFF77CFE4FF00008D4
:100EEC004FF0100A05AA434606A93046CDF814A0C7
:100EFC0003F063FB059A002AB8D04B46009706A96D
:100F0C002846FFF725FF059B9844EBE71757000091
:100F1C005C5D000073B5D0E900435D680F4A42F296
:100F2C000F738B4228BF0B466846052101F066FB08
:100F3C002B4606460B222046094903F045FB2B465F
:100F4C0032466946204603F03FFB2B461B220549DF
:100F5C00204603F039FB02B070BD00BF605C00009E
:100F6C003857000019570000084A10B50123084CE7
:100F7C0013600021A04204D801B11360054B186026
:100F8C0010BD40085B000121F4E700BF4C010020BC
:100F9C0040420F0048010020014803F07FBC00BF15
:100FAC00A05500000148FFF7B5BF00BFA0550000D9
:100FBC0008B5034802F022F9024B586008BD00BF87
:100FCC009D5700005801002010B508460C4603F050
:100FDC00B2FA214604480F22FFF726FF2046BDE84F
:100FEC00104003F0D5BA00BFA05500000A2838B550
:100FFC000446074D04D1286843680D215B68984767
:10100C0028684368E1B25B689847204638BD00BF4A
:10101C006401002010B5044C204601F0E9FA20468A
:10102C00BDE81040FFF7B0BAF90F000008B504484E
:10103C0002F0E4F8034B1860FFF7ECFF002008BD4A
:10104C009D57000064010020154B07B51A6882B14A
:10105C004FF08042D2F80823D1070AD500221A603B
:10106C001B6810480093009B83685B7A0BB903F0F4
:10107C00EBFC0D4B1A6882B14FF08042D2F808237A
:10108C0092070AD500221A601B680193019B07483E
:10109C0003B05DF804EB03F0D7BC03B05DF804FBC0
:1010AC000001004010180020040100401C18002012
:1010BC000D4B0022C3F840214FF02002EFF31181B9
:1010CC0082F31188BFF36F8F084AD3F804051368B5
:1010DC00C01A20F07F400344136081F31188BFF3E2
:1010EC006F8F02F06BBE00BF00100140800100202A
:1010FC0073B51C4802F082F880B343681A4D1B6824
:10110C0000219847012600244FF48033C5F8084588
:10111C00C5F84065C5F8043303F1804303F58A53E1
:10112C004FF400321C601B680193019B0F4B31463E
:10113C00C3F880211120224600F010F9112000F094
:10114C00FDF80B4B1E602E60D5F80435334423F0AC
:10115C007F43C5F84035204602B070BD4FF0FF30DC
:10116C00FAE700BFBB5700000010014000E100E0AF
:10117C000810014070B5214EB0F1FF3F08BF30465A
:10118C004FF02003EFF3118483F31188BFF36F8FBB
:10119C001B491C4BD1F804251D68531B23F07F43BE
:1011AC00013501382B4420EAE070B042D4BF181846
:1011BC009819821A22F07F4220F07F43022AC1F84C
:1011CC00403504D984F31188BFF36F8F70BDD1F80B
:1011DC0004350D4AC31A23F07F435D1E954205D991
:1011EC000A4B4FF40032C3F80021EBE7012B02BF8E
:1011FC00023020F07F40C1F84005E3E7FEFFFF001E
:10120C000010014080010020FEFF7F0000E100E0A3
:10121C004FF02002EFF3118382F31188BFF36F8F2D
:10122C00064AD2F80405064A1268801A20F07F405C
:10123C0083F31188BFF36F8F704700BF001001401C
:10124C00800100204FF02003EFF3118283F311880B
:10125C00BFF36F8F0649074B0868D3F8043582F348
:10126C001188BFF36F8F1B1A23F07F43184470470C
:10127C00800100200010014004488168406A8842C7
:10128C0003D003494FF080520A607047840200205B
:10129C0004ED00E0094A0A4993680968996609490E
:1012AC0058664B6843F080534B60002383F31188DE
:1012BC00BFF36F8F9368986E704700BF8402002055
:1012CC005456000000ED00E012498A684FF02800E7
:1012DC001044EFF3098C80E8F01F202080F3118874
:1012EC00BFF36F8F0C4F4FF000664A6A8A603E6006
:1012FC00506E0023536680F3118804B5104603F03A
:10130C00CFFBBDE8044002F1280090E8F01F8CF3FD
:10131C00098870478402002004ED00E01EF0040FE1
:10132C000CBFEFF30880EFF30980816911F8021C00
:10133C000229FFD001B503F0A8FB01BD43B2002B7D
:10134C0008DB012200F01F0002FA00F05B09024AE0
:10135C0042F82300704700BF00E100E043B2002BCD
:10136C00A8BF03F1604301F101014FEA4111AEBF87
:10137C0003F5614300F00F00034BC9B2ACBF83F817
:10138C0000131954704700BF14ED00E02DE9F04133
:10139C008C18884617461E4604220A9B0999054656
:1013AC0003F03BFFA4F120030C4923F007030022B8
:1013BC0021F00101C5E91322C5E916879961069947
:1013CC005960079999600899D9604FF080711E6037
:1013DC00D961AB646A66BDE8F08100BF7D40000056
:1013EC00F8B505460C4617461E4600F065FB0B4B40
:1013FC003C4428469D6024F0070403F051FB304622
:10140C0084F3098863B64FF0000181F31188BFF3B0
:10141C006F8F00210022002302F02AFE840200209C
:10142C00014910220A60704710ED00E0404080F343
:10143C00118830BF704700BF404080F31188DFF83F
:10144C001CC0DCF800C01CF4006C0CBFEFF308806F
:10145C00EFF3098001B500F047FA01BD04ED00E09F
:10146C0073B506460C46002938D001224FF0000314
:10147C0062F307031D4D1E4A1E48AD1AC5F3C9057C
:10148C0065F38F13ADF80030D1E90123096802F040
:10149C00E5FF01224FF0000362F3070365F38F139E
:1014AC00ADF80030D4E90423E168134802F0D6FF0C
:1014BC0001234FF0000263F3070265F38F12E16919
:1014CC000E4802F09FFF4FF00002012363F3070266
:1014DC0065F38F12A1690A4802F094FF2146304649
:1014EC0002B0BDE8704001F0CBBE00BF105500004B
:1014FC00F8540000E757000016580000455800004B
:10150C005458000030BFFFF7FDBF00BF08B5084BB3
:10151C00084A23F07F039360BFF34F8FBFF36F8FA5
:10152C0001F018FF01F020FF00F094FA01F04EFFDB
:10153C000000000000ED00E001B572B60B4A106A25
:10154C0000281EBF0021116203F048FD62B6EFF3C4
:10155C000580A0F110004FEAC0000549014409C9FB
:10156C009847BDE801400349084700008402002069
:10157C00305300008512000002F012FF202080F38F
:10158C00118808484FF40061401880F30988EFF384
:10159C0014800221084380F31488BFF36F8FFFF788
:1015AC00B5FF0000100B002001234FF0000110B517
:1015BC0063F30701334C344B3448E41AC4F3C904C5
:1015CC0064F38F1102F011FF314B9B6A9A0109D51C
:1015DC004FF00001012363F3070164F38F112D48D1
:1015EC0002F003FF2A4B9B6ADB0109D54FF0000187
:1015FC00012363F3070164F38F11274802F0F5FE12
:10160C00234B9B6A180309D54FF00001012363F3A8
:10161C00070164F38F11214802F0E7FE1C4B9B6A13
:10162C00590309D54FF00001012363F3070164F35B
:10163C008F111B4802F0D9FE154B9B6A9A0309D5F2
:10164C004FF00001012363F3070164F38F11154878
:10165C0002F0CBFE0E4B9B6ADB0309D54FF0000169
:10166C00012363F3070164F38F110F4802F0BDFEF1
:10167C00074A936A6FEA03436FEA134393620020AD
:10168C0010BD00BF10550000F8540000E2590000D6
:10169C0000ED00E0FA5900000D5A0000275A000036
:1016AC00455A00006A5A0000845A0000F8B501231C
:1016BC000E464FF0000163F30701364C364BE41A2B
:1016CC00C4F3C90464F38F110746344802F08DFE4D
:1016DC00334B9B6AD90609D54FF00001012363F304
:1016EC00070164F38F112F4802F07FFE2C4B9B6A8D
:1016FC001A0709D54FF00001012363F3070164F3C6
:10170C008F11294802F071FE254DAB6A9B071CD541
:10171C0001234FF0000163F3070164F38F11234899
:10172C0002F063FE696BAB6A18060ED54FF000022F
:10173C00012363F3070264F38F121D4802F062FE6B
:10174C001FB1AB6A23F08003AB62154B9B6ADA07BF
:10175C0009D54FF00001012363F3070164F38F11E6
:10176C00144802F042FE0E4B9B6A9B0609D54FF0C3
:10177C000001012363F3070164F38F110E4802F09B
:10178C0034FE074B9A6A9A6A002042F0FF029A6272
:10179C003070F8BD10550000F85400000A590000D4
:1017AC0000ED00E02059000053590000665900007C
:1017BC007E59000094590000B3590000F8B501237C
:1017CC000E464FF0000163F307013C4C3C4BE41A0E
:1017DC00C4F3C90464F38F1107463A4802F005FEBE
:1017EC00394B9B6AD90409D54FF00001012363F3EF
:1017FC00070164F38F11354802F0F7FD324B9B6AF9
:10180C001A0509D54FF00001012363F3070164F3B6
:10181C008F112F4802F0E9FD2B4DAB6A9B051CD5AF
:10182C0001234FF0000163F3070164F38F11294882
:10183C0002F0DBFDA96BAB6A18040ED54FF0000269
:10184C00012363F3070264F38F12234802F0DAFDDD
:10185C001FB1AB6A23F40043AB621B4B9B6A590567
:10186C0009D54FF00001012363F3070164F38F11D5
:10187C001A4802F0BAFD144B9A6AD20511D54FF0F2
:10188C000001012363F30701154864F38F1102F083
:10189C00ACFD0D4A936A002043F47F439362307091
:1018AC00F8BD9B6A9B04F4D54FF00001012363F350
:1018BC00070164F38F110B48E9E700BF10550000D6
:1018CC00F85400008258000000ED00E09858000029
:1018DC0053590000A9580000C2580000D758000006
:1018EC00F2580000B3590000F7B5494B064658684A
:1018FC000023C0F308028DF80730D31E092B6DD8D6
:10190C00DFE803F005575B4B6C6C6C6C6C5F012370
:10191C004FF0000163F307013E4D3F4B3F48ED1A7A
:10192C00C5F3C90565F38F1102F05FFD384BDC6A16
:10193C00002714F002048DF807700BD04FF0000153
:10194C00012363F30701364865F38F1102F04DFD57
:10195C00002425E0DB6A5B0022D501234FF0000157
:10196C0063F3070165F38F112E4802F03EFD2E4BF9
:10197C001B782BB10DF107010120FFF797FE0EE04C
:10198C002A4B1B782BB10DF107010120FFF716FF35
:10199C0005E0274B1B889BB213B1FFF705FE0446ED
:1019AC009DF807301BB931462046FFF759FD03B0AF
:1019BC00F0BD0DF107010020DFE70DF1070100205C
:1019CC00E4E701234FF0000163F30701124A114BC6
:1019DC0018489B1ADB0863F38F11B7E701214FF00E
:1019EC00000361F307030C4C0A4910F4F87FA1EBD8
:1019FC00040111484FEAD10161F38F13A2F11002D7
:101A0C000E4918BF01460E4802F010FDA0E700BFBA
:101A1C0000ED00E010550000F8540000AF5A000033
:101A2C00C65A0000E75A000028ED00E029ED00E05E
:101A3C002AED00E0065B0000515B00003C5B0000FF
:101A4C006A5B0000024A536943F01003536170470C
:101A5C0000ED00E0044800232021C2180133272B9D
:101A6C0082F80013F9D1704700E100E038B5054663
:101A7C004FF02003EFF3118483F31188BFF36F8FC2
:101A8C0003F0ACFB0A4B9B68AB420BD1094B5A6879
:101A9C00C2F3080212B92046FFF7FCFB5A6842F069
:101AAC0080525A602046BDE8384003F0ECBA00BFC3
:101ABC008402002000ED00E01FB5084B0193084B99
:101ACC000293084B039301AB0093074A074B012188
:101ADC00684600F0B5F805B05DF804FB0000002086
:101AEC000000000000000B06000000200000012098
:101AFC00F8B52E4F0E460021B14222DA50F821C023
:101B0C00DCF80440002C4FD0EBB104F1FF3E14EA9A
:101B1C000E0F06D11F2C04D9DCF800501EEA050F5D
:101B2C0011D001234FF0000263F307022048214B30
:101B3C001B1ADB08204863F38F1202F063FC6FF072
:101B4C0015021046F8BD202CD5B2DCF80020DCF8CC
:101B5C0008C01AD9B4F1004F19D8013CB4FA84F476
:101B6C00C4F11F046400072D4CEA040411D90123AD
:101B7C004FF0000263F307020D490E4B0F485B1A3E
:101B8C00DB0863F38F122946D7E70824EBE73E24E2
:101B9C00E9E722F01F022A4342F0100244F001044C
:101BAC00BD60FA603C616A1C0131A5E790ED00E074
:101BBC00F854000008550000815B0000A45B000095
:101BCC00034B05225A60BFF34F8FBFF36F8F7047E3
:101BDC0090ED00E0BFF35F8F014B00225A6070471D
:101BEC0090ED00E013490868082810B51ED8FFF7DF
:101BFC00F1FF114C49680022904201F10C0105D112
:101C0C000E4B1870FFF7DCFF002010BDA26051F8DE
:101C1C000C3C23F01F03134343F01003E36051F813
:101C2C00043C43F0010323610132E5E74FF0FF3040
:101C3C00EBE700BF4055000090ED00E0C70200202C
:101C4C0010B5034C01232278FFF752FF207010BD12
:101C5C00C702002008B5084A00231278FFF748FF96
:101C6C0010F1160F03D0054B0022072800DD08BD2C
:101C7C0098601A610130F8E7C702002090ED00E08F
:101C8C002DE9F04F9FB01E46002301900491009364
:101C9C00134613F8010B059358B1252800F08580E5
:101CAC000499019B9847013040F00D844FF0FF33AD
:101CBC00009300981FB0BDE8F08F232C6CD061D836
:101CCC00002CF6D0202C0A9B08BF01230A93CDF8D8
:101CDC001480DDF81480B94818F8014B214602F045
:101CEC00FAFE0028E9D12A2C66D156F8043B07935A
:101CFC00002BBFBF5B42079301230B93059B98F806
:101D0C00004003F102082E2C7CD198F800302A2BCD
:101D1C0075D156F8045B08F1010818F8014BA84876
:101D2C002146274602F0D7FE00286ED04346682F86
:101D3C0013F8014B059307D1682C05D108F1020368
:101D4C0098F8014005934827672C7CD8652C80F0C7
:101D5C003981472C5DD8452C80F03481002CA8D0DB
:101D6C00252C00F0AC830499019B25209847013069
:101D7C009CD00499019B20469847013096D0009B3B
:101D8C000233A2E32D2C0AD0302C0BD02B2C099B28
:101D9C0008BF012309939AE70123069397E70123D0
:101DAC000B9394E70123089391E700230893CDE963
:101DBC0009330B9306938CE7A4F13003092B07909E
:101DCC00A1D80A22DDF8148018F8014BA4F13003D5
:101DDC00092B98D8079BCDF8148002FB0344A4F17F
:101DEC0030030793EEE701FB0535303D9046424644
:101DFC0012F8013BA3F130000928F4D98DE7002536
:101E0C000A21F4E74FF0FF3589E7CDF81480074637
:101E1C009AE7632C5AD020D8582CA4D16F2C06F1F9
:101E2C000409316840F01C83069B002B00F00A83E8
:101E3C0030238DF85C30002940F00F838DF85D1055
:101E4C008846012626E0702C00F0E78228D86E2CFC
:101E5C0000F0D082E2D8692C85D13468002C06F1D0
:101E6C00040980F29C802D238DF85C3061420DF1C9
:101E7C005D0630460A2202F094FE099B064417A820
:101E8C00361A002B40F024830A9B002B40F0208351
:101E9C004FEAD478002D22DA00252F46AA46E5E039
:101EAC00752CBBD0782CB9D0732C7FF45CAFB146B9
:101EBC00002D59F8043BB8BF6FF000450026B54221
:101ECC0040F0BB822E460025A84609E0B1464FF0F3
:101EDC00000859F8043B8DF85C300126454617ABD9
:101EEC0005EB08020025921B2F46AA4622EAE27255
:101EFC0091190691079990190C1A0B9911B9002C8C
:101F0C0000F3048303EB080B5B4540F0018312F1F3
:101F1C00FF3280F00D83A6EB0806BAF1000F11D04A
:101F2C009BF800000BEB0608A0F13003092BA8EB83
:101F3C000B0640F20883D04618F1FF3880F00C8372
:101F4C00A6EB0A06AFB10BEB06081BF801AB049924
:101F5C00019B5046984701303FF4A8AEBAF12E0FC2
:101F6C00A8EB0B06F1D1B846B8F1000F00F3FD82D7
:101F7C00F61B95B19BF800000BEB0608A0F13003A3
:101F8C00092BA8EB0B0640F2FB822E2800F0F882FE
:101F9C002F46002F00F3FD82761B5E440CE3099B59
:101FAC0023B12B238DF85C30214660E70A9B0BB1E3
:101FBC002023F7E7214617AE5BE700BFCA5B0000A2
:101FCC00D05B000006F1070929F00709F9E80223A4
:101FDC00D80240EA5250D60220F0004002960390FC
:101FEC00DDE90267002AC3F30A5173F10003CDE95E
:101FFC00126743DA2D238DF85C300DF15D0740F24A
:10200C00FF73994255D1DDE902231343A4F1410436
:10201C0007F1030B42D1192C3AD849233B704E23BC
:10202C007B704623002517AEBB70FD70ABEB060B27
:10203C002F46AA46099B002B40F0D9810A9B002B06
:10204C0040F0D5819DF85C80A8F12D03D3F10008F8
:10205C0048EB03081EAB4344BB4413F81C3C303B19
:10206C000BEB0A06092B2E4400F23782089B002B3F
:10207C0000F03682079B9A1B17AB37E7099B0BB115
:10208C002B23B8E70A9B0BB12023B4E717AFB6E7B5
:10209C0069233B706E237B706623C3E7192C99BFB1
:1020AC004E2341226E23612294BF3B703B707A70A9
:1020BC00B8E7029B03980B430C93CB1703430D9388
:1020CC00DDE90C23462C08BF6624134300F0FF8087
:1020DC00002900F09F80139B43F00043A1F2FE38CF
:1020EC001393002618F1020FC0F2A8806FF0004A7B
:1020FC004FF0000BB8F1000F00F3CC8012A808F1E0
:10210C00010802F070FDB8F1040FF7D1002D04F0B6
:10211C00DF03B8BF0625472B40F0E180F21C02DB41
:10212C00AE4240F3D780023CE4B2002D00F0DD80DB
:10213C00069B013D002B40F0D880002DD4BF4FF002
:10214C0000084FF00108662C40F0D18016EB050A10
:10215C0040F1D5801023119366244FF0000A002221
:10216C004FF00063CDE914231AF1FF3A80F0C980D7
:10217C00129B149A15999B18139A41EB0202CDE904
:10218C00123202F070430E9300230F93DDE90E23FD
:10219C00134306D012A802F038FD12A802F023FD5A
:1021AC000136662C40F0C780002E40F3B180119BA5
:1021BC00002B07DD11A912A802F053FD013E07F810
:1021CC00010BF4D1B246BB460026069B13B9002D79
:1021DC0040F3AF802E230BF8013B002E00F0A780BC
:1021EC00002D40F3A6807742AF42A8BF2F46ED1BCF
:1021FC00002D03DD119B002B00F39180B8F1000F33
:10220C0040F0AF80002317AE8BF80030ABEB060B21
:10221C0010E70139029BDB180293039B5B4103938C
:10222C00DDE90223002A73F10003F2DADDE902236F
:10223C00CDE912234FE712A802F0D5FCDDE9122CF0
:10224C004FF0000BB9480021594508BF604508F113
:10225C000108F0D30520A2FB002300FB0C33CDE9D1
:10226C001223DC46013E6FF0004A4FF0000B0021B8
:10227C008B4508BF9A4506D2BCF1000F3FF432AF34
:10228C00CDE912232EE792185B4108F1FF384FF08D
:10229C00010CECE712A802F0B8FCDDE9121008F111
:1022AC00FF3801364FF0000C00239B4508BF8245D8
:1022BC0006D2BCF1000F3FF41DAFCDE9121019E7A7
:1022CC004918404108F1FF384FF0010CECE70026AB
:1022DC00B04613E7069BAD1B23B966242DE74FF0E0
:1022EC00000830E74FF0000830E74FF0000805F128
:1022FC00010A10239A451193A8BF9A462FE766242A
:10230C00F7E714A802F081FC14A802F06CFC2BE790
:10231C00BB4630230BF8013B4FF0000A55E711A9DF
:10232C0012A802F09EFC013D0BF8010B60E737464A
:10233C005EE7002762E711A912A802F092FC069B47
:10234C003870302818BF06F1FF36002B3BD1002D1A
:10235C0039DC07F1010BB8F1000F45D04FF0000A42
:10236C0057465B461BF8012D302AFAD02E2A18BF8F
:10237C009B46002504F0DF03452B7FF443AF002E72
:10238C005A46BABF76422D232B23632E02F8024BFA
:10239C008BF801300ADD642196FBF1F303F1300078
:1023AC000BF103028BF8020001FB13660A21934622
:1023BC0096FBF1F301FB136603F1300030360BF89A
:1023CC00020B56701EE72E2307F1020B7B70002DBB
:1023DC00C1DD119B002BBEDD11A912A802F041FC3E
:1023EC00013D0BF8010BF2E7C2464746C2E74FF03E
:1023FC0001082FE6B146682F59F8043B05D001DCE3
:10240C00482F07D0009A1A6001E0009A1A804E46B5
:10241C00059A3DE4009A1A70F9E7B14647F6300385
:10242C00102259F8041BADF85C300DF15E0002F07F
:10243C00B8FB4FF00208861C2CE59A5D002A4AD0A6
:10244C0001363CE517AC0822204602F0AAFB17AE79
:10245C00A61B06444FF000081CE50DF15D04F2E7E5
:10246C00752C05D10A2217A802F09BFB0646F1E752
:10247C00069B93B147F63003ADF85C300DF15E0767
:10248C001022384602F08DFB582C08D017AE069B54
:10249C00BE1B06444FEA4308FCE417AFF0E717AA4B
:1024AC0012F8013BA3F16101192903D8203B02F872
:1024BC00013CF5E712F8013C002BF1D1E6E7049959
:1024CC002046FFF7EEBB009B01330093B1469EE71D
:1024DC004FF00108DEE41546F6E417AB002207E5E1
:1024EC0017AB089A04E5CDE907320499019B20202B
:1024FC0098470130DDE907323FF4D8AB1BF1FF3BC5
:10250C00F1D20099214400915C46FBE4A346F5E727
:10251C0013F8010B07930499019B0892984701301B
:10252C00DDE907327FF4F0ACFFF7C0BB3233333355
:10253C000499019B0792302098470130079A7FF449
:10254C00E6ACFFF7B3BB0499019B984701303FF40D
:10255C00ADAB1BF8010FE7E40499019B30209847C1
:10256C0001307FF4E9ACFFF7A1BB0499019B30204B
:10257C009847013008F1FF387FF4F6ACFFF796BBB3
:10258C000499019B984701303FF490AB1BF8010F65
:10259C00F4E40499019B30209847013007F1FF3790
:1025AC007FF4F7ACFFF782BB04991BF8010B019B7E
:1025BC00984701303FF47AABA6EB0B03002BF3DC0E
:1025CC00009B069A002C134400937FF720AF2546FE
:1025DC0006E00499019B2020984701303FF466AB3C
:1025EC0015F1FF35F5D2009B234400930FE700BF94
:1025FC00014B1860704700BFB81700200CB41FB512
:10260C0009B90DF10300CDE9020107AB069A0648A2
:10261C00019302A9FFF734FB029B00221A7005B04C
:10262C005DF804EB02B07047A34C000008B5094BF1
:10263C001A786AB90121197006200521FEF78EFE61
:10264C000620FEF77BFE044B4FF00042C3F8042338
:10265C00002008BDC8020020006000402DE9F743AF
:10266C004D4F3D68012D66D14C4A93681268DC6968
:10267C00D2F80880D3E902120A40D3E905100143CD
:10268C0022EA0102D8F800101B69D1F810155C4041
:10269C004C4022EA04042E464FF00009002A39D19E
:1026AC003A603B680093009B3D4E002301279C46FB
:1026BC00D6F8042307FA03F1114214D09A0002F160
:1026CC00804202F5C242116801290CD103F5A270B7
:1026DC0056F82000C2F800C012680192C0F3042022
:1026EC008140019A0C430133082BE1D12CBB012D05
:1026FC000DD12A4B9C681B689E68D4E902321A40A3
:10270C00D4E905310B4322EA0302002762BB03B074
:10271C00BDE8F08332420AD098F8043009F01F006B
:10272C00002140EA431002F0C3FA22EA060209F142
:10273C0001097600B2E70024B6E7184FD7F80880F5
:10274C00D8F800100029D2D00E68D8F80C308A685E
:10275C002340134203D04B68224638469847002E3C
:10276C00C5D031463668F0E7154212D0E1692369CD
:10277C0096F804C04B40FB4013F0010F07F01F000C
:10278C000CBF0321022140EA4C1002F091FA22EA1C
:10279C00050201376D00B9E77C6100405818002034
:1027AC000060004073B5036886689B6801F01F04E5
:1027BC000D464E491B79D1F8042344EA4314D2B296
:1027CC00002303F5A27051F82000C0F304208442CA
:1027DC0070D122FA03F0C0076CD59A0002F1804246
:1027EC0002F5C042D2F8100520F00100C2F8100525
:1027FC00012202FA03F3C1F808332046002102F04B
:10280C0057FAB068E84010F0010051D0F068E84089
:10281C0010F001004CD07069E84010F0010255D066
:10282C00B369EB40DB0749D43369F269EB4022FA18
:10283C0005F503F0010305F00105AB4214BF0125BA
:10284C0002252A4E002101F5A27356F8230010F040
:10285C00030035D18B0003F1804303F5C043240200
:10286C00D3F8102522F4473222F44072C3F8102515
:10287C00D3F8102504F4F85444EA0545154301F146
:10288C004002920092B202F1804202F5C042C3F8BB
:10289C001055106012680192019AD3F8102542F07D
:1028AC000102C3F81025012303FA01F1C6F8041341
:1028BC0002B070BD0133082B83D19EE70325C0E71E
:1028CC0001310829BFD16FF01200F1E7F1693369CA
:1028DC004B4023FA05F515F0010F20460CBF0321E0
:1028EC00022102F0E5F91046E2E700BF006000406B
:1028FC0002480021C2E90001002070470024F400C6
:10290C00036810B504469868002200F1080100F035
:10291C0091FB0C4B984212D001234FF0000263F351
:10292C0007020949094B0A485B1ADB0863F38F124B
:10293C002368196801F066FD6FF00F0010BD0020D0
:10294C00FCE700BF0000AD0BF85400002055000060
:10295C00D45B00002DE9F0471F46036885689E682C
:10296C0014468946F21D4FF0000812F8013FFF2B68
:10297C0004D023F08003994500F08E8008F1010803
:10298C005FFA88F8B8F1040FEFD101234FF0000281
:10299C0063F307025F49604B60485B1ADB0863F323
:1029AC008F124946A4E0B4F5004F3AD3012324FA20
:1029BC0003F2B2F5004FD9B220D2A973AA81B27B2F
:1029CC00AB89A97B2C60CAF80C15CAF80425CAF887
:1029DC000835A74229D901224FF0000362F30703FF
:1029EC004C494D4A4E48521AD20862F38F1339465D
:1029FC00224601F01BFD6FF0150043E00133082B5C
:102A0C00D5D101234FF0000263F307024149424B39
:102A1C0044485B1ADB0863F38F12214601F0F2FC89
:102A2C0059E00023AB73AC81C9E705EB4801AA7BE5
:102A3C008B8827FA02F203F4004313438B800FB107
:102A4C00A7420DD1B04498F90830002F5DD1002C6D
:102A5C0051D101214FF0A04301FA09F1C3F80C1533
:102A6C002A1D05F10C0132F8023BC3F30E0313B11E
:102A7C00A889984208D89142F5D10021304602F03D
:102A8C0091FA0020BDE8F0870223012206F114011F
:102A9C00304600F04FFBF4E7B37B012B01D1640807
:102AAC007F083046D6F800A000F07EFB00287FF4AB
:102ABC007AAF2A6894428CD001214FF0000361F365
:102ACC00070314481449091AC90861F38F131648EF
:102ADC00214601F0ABFC01234FF0000263F3070227
:102AEC000C490D4B11485B1ADB0863F38F1221461E
:102AFC0001F088FC7FE7002BABDA01214FF0A043FB
:102B0C0001FA09F1C3F80815AAE7A742F5D1002B81
:102B1C009FDBF2E7F854000020550000905C0000A9
:102B2C00635C0000215C0000F45B00004C5C000066
:102B3C00034B186818B1D3F85C03C3F85C037047F7
:102B4C002421004030B54B79012B20D18B79032BFC
:102B5C001DD1CC792CB1012C19D103689B681B7841
:102B6C00ABB10A7912B1022A11D10E220B6847F6C9
:102B7C001225AB425FD027D8B3F5965F5ED012D842
:102B8C00B3F5167F5CD005D8B3F5967F5BD06FF0AC
:102B9C0022004FE0B3F5966F58D0B3F5166FF6D10F
:102BAC004FF41D233BE0B3F5615F52D004D8B3F56D
:102BBC00165FECD1304B32E0B3F5964F4CD0B3F5F9
:102BCC00E14FE4D12D4B2AE0B3F5E13F46D011D8CB
:102BDC004DF6C025AB4243D004D8B3F5164FD6D131
:102BEC00274B1CE0B3F5614F3DD0B3F5963FCED1EA
:102BFC00244B14E0B3F5E12F37D008D8B3F5613F7F
:102C0C0035D0214DAB42C2D14FF0806307E0B3F514
:102C1C00612F2ED01D4DAB42B9D14FF080531C4DBE
:102C2C002243C5F82435C5F86C25836803C983E8AD
:102C3C000300002030BD4FF40003F0E7154BEEE726
:102C4C004FF41C33EBE74FF4A033E8E74FF49E232B
:102C5C00E5E74FF46C13E2E70F4BE0E70F4BDEE7D1
:102C6C004FF46503DBE70E4BD9E70E4BD7E70E4B62
:102C7C00D5E70E4BD3E700BF0050270000F07500DE
:102C8C0000509D0000903A0190D0030040420F008C
:102C9C000020004000B0130000A04E0000E0D7015F
:102CAC0000F0EB0000705F0700B0AF0300D0BE0E69
:102CBC00084B1A6882B052B1002018601B6801934F
:102CCC00019B054BD3F818350B7002B070474FF0D1
:102CDC00FF30FAE70821004000200040094B002299
:102CEC001A6082B01A680192019A074A012010609A
:102CFC00C2F814151A68002AFCD0044B01221A6081
:102D0C0002B070471C210040082000400C200040FD
:102D1C004FF0A04337B5164C4022C3F808250321C9
:102D2C0000220825C3F81817C3F82027C4F8145537
:102D3C000625C4F80C552025C3F80855C3F81417FC
:102D4C00C3F81C270523C4F808350723C4F810352D
:102D5C008168FFF7F7FE48B90423C4F80035054B2A
:102D6C0018601B680193019B0123236003B030BDE5
:102D7C0000200040082100400C4B1B78062B10D182
:102D8C000B4B1B681A070CD10A4B186800F0F003A8
:102D9C00302B08D000F0E000A0F14003584258411D
:102DAC007047002070470120704700BFE00F00F013
:102DBC00E40F00F0E80F00F0094B1B78062B0CD148
:102DCC00084B1B681A0708D1074B186800F0F00075
:102DDC00A0F130035842584170470020704700BFA3
:102DEC00E00F00F0E40F00F0E80F00F008B5FFF77B
:102DFC00C3FF28B1784B794A1B68C3F304231360D3
:102E0C00FFF7DAFF10B1764B764A1A60FFF7B4FF82
:102E1C0028B1754B754A1B68C3F342331360FFF737
:102E2C00CBFF20B1724AD36823F08073D360FFF7D5
:102E3C00A3FF40B14FF080430022C3F80C21C3F82C
:102E4C001021C3F83825FFF7B7FF10B1694B0322E7
:102E5C001A60FFF7B1FF40B1674B05221A600122DF
:102E6C009A6700229A603F225A60644B1B78062BAB
:102E7C0050D1634B1B6819074CD1624B1B6803F094
:102E8C00F003502B46D14FF080525F4BD2F8041414
:102E9C00C3F82015D2F80814C3F82415D2F80C1472
:102EAC00C3F82815D2F81014C3F82C15D2F8141442
:102EBC00C3F83015D2F81814C3F83415D2F81C1412
:102ECC00C3F84015D2F82014C3F84415D2F82414D2
:102EDC00C3F84815D2F82814C3F84C15D2F82C14A2
:102EEC00C3F85015D2F83014C3F85415D2F8341472
:102EFC00C3F86015D2F83814C3F86415D2F83C1432
:102F0C00C3F86815D2F84014C3F86C15D2F84424F1
:102F1C00C3F87025FFF730FF28B13C4B3C4A1B68C7
:102F2C0003F04F031360FFF727FF48B14FF08043C6
:102F3C00D3F80024D20744BF6FF00102C3F8002479
:102F4C00344B1B68062B08D1334B1B68062B01BF77
:102F5C00324A136843F4806313604FF01023D3F8A4
:102F6C000022002A03DBD3F80432002B2FDA2C4B7F
:102F7C000122C3F80425D3F80024002AFBD04FF01B
:102F8C0010221521C2F80012D3F80024002AFBD01D
:102F9C004FF010231522C3F80422214B1A46D3F804
:102FAC0000140029FBD00021C3F80415D2F800341A
:102FBC00002BFBD0BFF34F8F1A491B4BCA6802F48E
:102FCC00E0621343CB60BFF34F8F00BFFDE7174B9D
:102FDC00174A1A6008BD00BF240300104035014099
:102FEC0074C007400DF0ADBA440200103C0500401F
:102FFC00F0ED00E0A005004010560040E00F00F09E
:10300C00E40F00F0E80F00F000C000405802001080
:10301C00E40E004030010010340100103C17004059
:10302C0000E0014000ED00E00400FA05D417002098
:10303C000090D0032DE9F04F06793B4CF700E319D3
:10304C0085B01B790546002B6CD144F83620481E00
:10305C006A4601F103094FF0010A4FF0A04C4FF002
:10306C00030B10F801EFBEF1FF0F57D02EF08003C9
:10307C0013600AFA03F803F5E0731EF0800F14BF17
:10308C00CCF80885CCF80C854CF823B0484502F1F7
:10309C000402E6D12868009BC0F86035019BC0F89B
:1030AC006435029BC0F86835039BC0F86C3501236E
:1030BC008A7991F805C0C0F800350B89C0F80CC5A9
:1030CC00C0F80425C0F808354B89C0F8103500232A
:1030DC00C0F800324FF48E71C0F8003301F034FFA9
:1030EC004FF48871286801F02FFF4FF48A7128681B
:1030FC0001F02AFF4FF48271286801F025FF54F883
:10310C00363023B1286840F30730FEF717F93C44FA
:10311C0001230648237105B0BDE8F08F4FF0FF3353
:10312C001360B3E70248F6E7A40100200000AD0BE2
:10313C000500AD0BF0B40D461C461A490379D5F8C1
:10314C0000C0AF88AE68ED6801EBC3010368C3F83B
:10315C0020C5C3F82475C3F82865C3F82C55C3F8EB
:10316C0040C5C3F84475C3F84865C3F84C5502F024
:10317C00010505EB5202C3F81425E20710D414F034
:10318C00020203D0002D14BF08220422002DC3F824
:10319C000022E2B214BF0C230823F0BC01F0DCBE09
:1031AC001022F3E7A40100200379084A016802EB1E
:1031BC00C3021379D1F80411DBB219B9981E18BFE8
:1031CC000120704701201071704700BFA40100203E
:1031DC00094B70B553F820400130002653F82050AD
:1031EC00A54200D870BD236820465B68984700B1A3
:1031FC0066600C34F4E700BF40560000104B70B50D
:10320C00104C05461E469C4204D10E4CB44209D1CA
:10321C00002412E062681AB122681268AA420CD02B
:10322C000C34F0E763680BB90C34EFE723682846DD
:10323C00196801F05EFC0028F6D1204670BD00BF75
:10324C0070180020E017002010B50446FDF71EFC96
:10325C0001234FF0000163F30701064A064B0748B0
:10326C009B1ADB0863F38F1101F0BFF8204601F0C5
:10327C00ACFE00BFF854000010550000D25C0000FA
:10328C002DE9F0410646884600F006FC01224FF07D
:10329C00000362F307031B4C1B4A042EA4EB02042D
:1032AC0096BF1A4A1A4A52F82620C4F3C904074694
:1032BC0064F38F131748314601F0B8F84FF000054E
:1032CC00012363F30705384664F38F1501F084FF7F
:1032DC00A8B10278104B002A08BF1846FDF750FA27
:1032EC002B46024639460D4801F0A0F841463046BF
:1032FC00FFF7AAFF3846BDE8F041FEF7B7BB06481A
:10330C00ECE700BF10550000F854000058560000C0
:10331C002B5D0000415D0000395D00005F5D000029
:10332C0008B50B4D4FF02002EFF3118382F3118897
:10333C00BFF36F8F01F08FFF012102280446D8BF25
:10334C00084601F098FF2C62FEF770F8EAE700BF20
:10335C00840200200248034A0021121A01F0FFBB2C
:10336C0000000020CC02002008B50648064A074998
:10337C00121A01F0CAFB064A06490748BDE8084084
:10338C0001F0C3BBB017002094180020CC5D0000E6
:10339C0000000000CC5D00000000002008B50220F9
:1033AC00FFF716FF074800F0EDFF0320FFF710FFB3
:1033BC0000F02EFCFDF75CF8034A137B23F00103AD
:1033CC00137308BD775D00001802002080B5A2B011
:1033DC00FDF736F9354B83F30888354C354E636968
:1033EC0043F4007363610025E02384F82230E57711
:1033FC0025766576A576636A43F4E0236362FEF76F
:10340C0021FBFEF70DF84FF0FF33A362E36207AB2D
:10341C006C222946184601F0A2FB274C0127A0601C
:10342C0028468DF82970FFF7D3FE3846FFF7D0FEFB
:10343C0000F0DAFA214B66624FF48062CDE9047336
:10344C00CDE902551E4B1F49CDE90055304600F021
:10345C0097FB737B23F0040213F01B0F727304D1E0
:10346C00B36913B9304600F067F9174B174D059344
:10347C0001220F23CDE903320023CDE90133009360
:10348C004FF4A072124B1349284600F079FB6B7B6A
:10349C00E56023F004036B730F4B0A490548C4E93C
:1034AC0006334FF48062064BFDF79AFF1013002091
:1034BC0000ED00E01802002084020020C05D000036
:1034CC00A9330000D0050020C55D0000AC01002030
:1034DC002D330000D00900209C0200200B4B0C481F
:1034EC0070B50024834201D3002070BD1A699D6819
:1034FC005C610021A94201D11C33F3E75E691660BF
:10350C00DE685A6101313244F4E700BF70180020C4
:10351C007018002010B513460C464FF02002EFF344
:10352C00118182F31188BFF36F8F42695AB1226007
:10353C0013684361836901338361002081F311882F
:10354C00BFF36F8F0DE01BB923606FF00B00F5E735
:10355C000246044800F006FA18B9034B9B685B69F5
:10356C00236010BDC90200208402002070B50446FF
:10357C000D464FF02003EFF3118683F31188BFF350
:10358C006F8F01F0D1FD80B12A684261427B00212E
:10359C00D206816603D183690BB900F0CDF83146B0
:1035AC000848BDE8704001F05FBD2B6862691A6085
:1035BC002B686361A369013BA36186F31188BFF398
:1035CC006F8F70BDC9020020EFF305800D2809D85C
:1035DC0028B1054B586880F40060C0F3C02080F01F
:1035EC00010070470120FAE700ED00E010B5084C2F
:1035FC0023685BB1FDF70CFE2368064A1844106182
:10360C0000211846BDE8104001F035BE10BD00BFCA
:10361C00BC02002084020020F8B50D464FF02003B8
:10362C00EFF3118483F31188BFF36F8F0D4B4FF4BD
:10363C00004140F2E7360027C1FB006700221A6107
:10364C0030464FF47A7200233946FCF741FD064BA5
:10365C001860064B1D60FFF7C9FF84F31188BFF398
:10366C006F8FF8BD84020020BC020020B80200203D
:10367C004FF02003EFF3118183F31188BFF36F8FA9
:10368C00044B9A68D37B013BD37381F31188BFF34E
:10369C006F8F704784020020094B03F1280282428D
:1036AC0005D19B688B4202D14B7BDB0606D1D1E95D
:1036BC00003213605A600023C1E90033704700BF29
:1036CC008402002038B50D4C024604F1280001F0AC
:1036DC00F4FC054600B9E568A3684AB95A7BD206E2
:1036EC0006D1AA6922B9DA897F2A01D9636238BD69
:1036FC009D4201D0FFF77AFF6562F8E78402002053
:10370C0010B54FF02003EFF3118483F31188BFF34E
:10371C006F8F084B9A68D37B0133D3730020FFF76C
:10372C00D1FF84F31188BFF36F8FBDE8104001F017
:10373C00BABC00BF84020020F8B54FF02003EFF3B1
:10374C00118483F31188BFF36F8F154A114651F81A
:10375C00283F8B421DD0E3B1D66A90F90E5093F9F5
:10376C000E70AF4210DD5A68C0E90032106058602C
:10377C00437B43F0400343730020FFF7A3FF84F324
:10378C001188BFF36F8FF8BDB34202D01B68002BBA
:10379C00E5D1D36A4360D36A01601860D062E7E771
:1037AC0084020020F8B504464FF02003EFF3118596
:1037BC0083F31188BFF36F8F437B5A0603D5014601
:1037CC001748FFF769FF174AD2E90A3002F12801BE
:1037DC008B421FD0F3B194F90E6093F90E70B7427F
:1037EC0013DD5968C4E900310C605C60637B906840
:1037FC0043F040036373031B58425841FFF762FFC9
:10380C0085F31188BFF36F8FF8BD834202D01B681C
:10381C00002BE2D1C4E90010D36A1C60D462E5E746
:10382C00AC02002084020020154A164938B50C68F9
:10383C009368A342144603D1BDE83840FFF7D6BEC7
:10384C0000250D6010490968B9B1D9897F2914D8B0
:10385C000E4993F90E5009688D420EDB0C498B42D0
:10386C000BD0996949B91169814203DC1846FFF7FD
:10387C0099FFE1E7091A116138BD00232361FBE7C9
:10388C0084020020B4020020BC020020B8020020F8
:10389C00AC01002038B504464FF02003EFF311853E
:1038AC0083F31188BFF36F8F437B5A0607D501460C
:1038BC000948FFF7F1FE637B23F040036373074B6A
:1038CC009868031B58425841FFF7FCFE85F311889A
:1038DC00BFF36F8F38BD00BFAC0200208402002004
:1038EC0070B504460D461646FFF7D4FF637B43F0D4
:1038FC00020363737DB12B68A5609D4227D033B35F
:10390C0094F90E2093F90E1091421ADD5A68C4E90D
:10391C00003214605C60731C20D04FF4004540F200
:10392C00E73000214FF47A72C5FB06010023FCF747
:10393C00CFFB0B49421C04F11800BDE8704000F0AD
:10394C00FBB969688B4202D01B68002BDAD16B681B
:10395C0063606B6825601C606C60DCE770BD00BF49
:10396C00D350000010B50C461146064A9068064A22
:10397C0010601A46FFF7B4FF2046BDE81040FDF773
:10398C0089BC00BF84020020B4020020F8B5461C9C
:10399C0001F08BFC34184FF02003EFF3118783F305
:1039AC001188BFF36F8F0D4D0D4BA8681860FFF792
:1039BC0071FFA8680B493246183000F0BDF9AA68AF
:1039CC00537B43F0100353733846FDF763FC01F04F
:1039DC006CFC201A20EAE070F8BD00BF84020020C5
:1039EC00B4020020D3500000044B002103F1280244
:1039FC00C3E90A220846FFF70FBE00BF840200206D
:103A0C00F8B5234C234BA2689A4229D04FF02003DF
:103A1C00EFF3118683F31188BFF36F8F04F1280540
:103A2C00A1682846FFF738FEA26AA368AA4228D0EC
:103A3C003AB3E06A93F90E1092F90E708F421BDDC7
:103A4C005168C3E900210B6053605A7B42F040027D
:103A5C005A730120FFF736FE86F31188BFF36F8F80
:103A6C004FF02003EFF3118083F31188BFF36F8FB6
:103A7C00BDE8F840FDF70EBC824202D01268002A65
:103A8C00DAD1E26A5A60E26A1D601360E362DCE735
:103A9C0084020020AC010020014B9868704700BFE5
:103AAC008402002070B504464FF02003EFF311861A
:103ABC0083F31188BFF36F8F01F036FB054670B1AD
:103ACC00437BDB0603D183690BB9FFF735FE00237B
:103ADC00AB6631460548BDE8704001F0C5BAD4E983
:103AEC0002329A4218BF0133A360F2E7C9020020E8
:103AFC0010B402460B464FF02000EFF3118180F317
:103B0C001188BFF36F8F946844B1013C946081F3CA
:103B1C001188BFF36F8F002010BC704733B981F34D
:103B2C001188BFF36F8F6FF00F00F5E7014810BCE1
:103B3C00FFF718BFC902002010B502464FF0200352
:103B4C00EFF3118483F31188BFF36F8F437B590715
:103B5C0004D484F31188BFF36F8F10BD23F00403DA
:103B6C00437301F02DFB10B11046FFF7E5FD214624
:103B7C000248BDE8104001F077BA00BFC90200202E
:103B8C0030B587B004460E9D04950D9D03950C9D94
:103B9C0002950B9D01950A9D0095FDF7F7FB034BD4
:103BAC009B6803B11B6E236607B030BD84020020F6
:103BBC0070B586B0002605960E9E04960D9E039653
:103BCC000C9E02960B9E0F9D01960A9E0096044633
:103BDC00FFF7D6FF6B1C03D02DB92046FFF7ACFFC7
:103BEC00204606B070BD4FF4004640F2E73000218D
:103BFC004FF47A720023C6FB0501FCF769FA0349FE
:103C0C00421C04F1180000F097F8E9E7D3500000CB
:103C1C002DE9F04F284E294D87B0B046B54205F13D
:103C2C00300410D3FFF724FD244CDFF894A04FF49C
:103C3C00004940F2E7360027444521D307B0BDE8E0
:103C4C00F04FFFF75DBD54F8043C059354F8103C5D
:103C5C00049354F8143C039354F8183C029354F80E
:103C6C001C3C019354F8203C009354E90A2354E97A
:103C7C000C01FFF785FF54F8303CDD642546CDE799
:103C8C00616A4B1C04D0256821B92846FFF754FF04
:103C9C003034D1E7B346BC46C9FB01BC4FF47A7251
:103CAC00002358466146FCF713FA5146421C05F1B5
:103CBC00180000F041F8EBE7701800207018002095
:103CCC00D3500000034B1B680BB9FDF7A1BA0020C1
:103CDC00704700BFC0020020036840B1074A526819
:103CEC00904204D01BB19A6881680A449A60426879
:103CFC0013605A600023C0E900337047D8170020C6
:103D0C000B4B10B51C689C4208BF0024FFF7DAFF70
:103D1C0054B1A368181A20EAE070064B1B6913B162
:103D2C009842A8BF184610BD6FF00040F5E700BFE1
:103D3C00D81700208402002070B504461646C160D6
:103D4C004FF02003EFF3118583F31188BFF36F8FCE
:103D5C00FFF7B8FF184B1A68012EACBF8019013061
:103D6C009A42A06001D05E6832B95A6862605A68A3
:103D7C00236014605C600AE09068A168884215DDDD
:103D8C00411A91605168C4E900210C6054601A68B2
:103D9C009A4206D0944204D1FFF7B2FF0021FDF7FE
:103DAC00E9F985F31188BFF36F8F70BD091AB24220
:103DBC00A160DAD01268D7E7D81700202DE9F04BB4
:103DCC000446FFF731FD4FF02003EFF3118583F329
:103DDC001188BFF36F8F214E214FDFF8889034602C
:103DEC00B846D9F8004032684C45D7E900BC05D03C
:103DFC0024B1A368934214DD9B1AA3601BEB020051
:103E0C004CEBE2710024C8E900013460FFF778FF45
:103E1C002146FDF7AFF985F31188BFF36F8FBDE82D
:103E2C00F08B1BEB03004CEBE371D31A33600023D4
:103E3C00C7E90001A3602046FFF74EFF85F3118808
:103E4C00BFF36F8FE36898474FF02003EFF31185B2
:103E5C0083F31188BFF36F8FC3E700BFC00200204C
:103E6C0000000020D81700202DE918484FF020033F
:103E7C00EFF3118483F31188BFF36F8FFDF7C8F94B
:103E8C00074BD3E9002312EB000B43F1000C58460F
:103E9C00614684F31188BFF36F8FBDE8188800BFAB
:103EAC0000000020026A002A38B5044602DD0E49E3
:103EBC00FFF742FF636A01336362A3690BB12046CB
:103ECC00984754F8105FA5420DD065B1284601F013
:103EDC00B2F86B7BDB0604D1AB6913B92846FFF74C
:103EEC002BFC0023AB6638BDB13E00002DE9F3413D
:103EFC0040F2E7360027044688464FF4004530462A
:103F0C003946C5FB020100234FF47A72FCF7E0F846
:103F1C003946009030464FF47A720023C5FB0801F5
:103F2C00FCF7D6F80190204601F07FF9009B05497B
:103F3C00019A236220460023636202B0BDE8F0417F
:103F4C00FFF7FABEB13E000038B5074C074DAC4246
:103F5C0001D3002038BD04F114032046C4E9053315
:103F6C0000F040F81C34F2E77018002070180020A4
:103F7C00F8B5054616460846FFF740F90024C5E992
:103F8C0000062C72436832461F6821468123B847CD
:103F9C002C722046F8BD012303727047F8B5044615
:103FAC0015461E460846FFF729F92561206043682F
:103FBC002A461F6800214FF49B73B84701222068E2
:103FCC00A66002FA05F3E3604368DB68211D03B1C8
:103FDC009847206843681B6913B12A46002198470B
:103FEC000020F8BD2DE9F04F46680789016890F86C
:103FFC000A80FF2306FB07FCC37261443246002390
:10400C004FF00C09984505DC002319468F4220DC43
:10401C00BDE8F08FD0F80CA0BCFBF2F509FB03FE59
:10402C000AEB0E0404F1040B202DC4E901BB05D8E6
:10403C00C372920822F003020133E3E715F11F0467
:10404C0048BF05F13E0464114AF80E1001EB8401DF
:10405C00EFE7C268056802F1040CEC1845F803C0E0
:10406C0095686560956801312C6033449460CDE7A8
:10407C00044608B5084611461A46A047FFF70CFD42
:10408C00FDF7F4FC0020704770B504460D46452042
:10409C00A04729465220A047294623465220BDE876
:1040AC00704018472DE9F04F8BB01C464FF00008BC
:1040BC00531E06460F4602934FF0FF3AC1460025A9
:1040CC0005E06DB9252800F04F813946B047029BB9
:1040DC0013F8010F02930028F3D10BB0BDE8F08F59
:1040EC0064286ED01AD839280AD8312860D22D28E5
:1040FC0000F0408130284CD0252807D139460BE000
:10410C00582800F0BB80632800F02A81394625200E
:10411C00B047029B18783946B047D0E7702800F0BA
:10412C00A38011D869284CD06C2805D1B8F16C0F3C
:10413C002AD14FF04C08CAE76828E7D1B8F1680FCC
:10414C0022D14FF04808C2E7752871D018D87328CF
:10415C00DCD154F8045BAB465B461BF8010B002822
:10416C0040F0FB80B9F1030F40F00A815D1BAAEB14
:10417C000505002DA3DD39462020B047013DF8E7A9
:10418C0078287BD07A28C1D1B8F1000FBED18046F7
:10419C009DE7BAF1000F0EDAB9F1000F00F0ED80D7
:1041AC00A0F1300AB9F1000F08BF4FF002098EE7F9
:1041BC00BAF1000FF4DB0A2303FB0A0AAAF1300A56
:1041CC00F0E7B8F17A0F02D154F8045B1FE0B8F1B4
:1041DC006C0FF9D0B8F14C0FF6D1073424F007046A
:1041EC00F4E8022312F10041069143F1000107911A
:1041FC00DDE906BC00214FF0FF30614508BF584592
:10420C0004D239463046FFF73FFF58E71546002DDC
:10421C0005DA39462D20B0476D420AF1FF3ACDF848
:10422C0000A04B462A4639463046FCF761F946E772
:10423C00B8F17A0F02D154F8042B11E0B8F16C0FDD
:10424C00F9D0B8F14C0FF6D1073424F00704F4E898
:10425C00022300214FF0FF30994208BF9042D0D387
:10426C00CDF800A04B46DEE739463020B047394642
:10427C007820B0474FF0080A4FF00109029B1B78D9
:10428C00702B04D154F8043B049300230DE0B8F1D7
:10429C006C0FF7D0B8F14C0FF4D1073424F00703AE
:1042AC001C465B6854F8082B0492002110220391E1
:1042BC0005914FF0400BABF1040B0498CBF1200CA3
:1042CC00ABF1200120FA0BF003FA0CFC40EA0C00D5
:1042DC0023FA01F1084310F00F0008D1059911B928
:1042EC00BBF1000F24D1302105E00595E3E7092847
:1042FC008CBF57213021084440B2394608930592AF
:10430C00B047039B059A01330393089BBBF1000F45
:10431C00EBD1B9F1030F7FF4D2AE039BC3EB4A058B
:10432C00002D7FF7CCAE39462020B047013DF7E792
:10433C00511E9245089107DBB9F1010F06D1099383
:10434C0039463020B047099B089AB4E7B9F1020FFF
:10435C00FAD1099339462020F4E73946B047FBE6F9
:10436C00394654F8040BD7E6A846A9464FF0FF3A55
:10437C000125ACE64FF00309A9E64FF00109A6E6CA
:10438C000546A4E60FB407B504A951F8040B019136
:10439C00FCF700F903B05DF804EB04B0704770470C
:1043AC00FEF724BD0023C0E900337047036823B92E
:1043BC000160002341600B60704743681960F8E7A7
:1043CC000068704703680BB11A68026018467047A2
:1043DC0008B5FCF7BBFB18B1012343600023038134
:1043EC0008BDFCF72FBF0020704738B505460C46BA
:1043FC00FFF7EEFF28B105612146BDE83840FCF718
:10440C00C7BA38BD70B504460E461546FFF7E0FF37
:10441C0058B10461447A4661012262F30714447274
:10442C002946BDE87040FCF7B3BA70BD2DE9F041E8
:10443C000546884617461E46FFF7CAFF60B1056160
:10444C00457A022363F307154572C0E905873146A7
:10445C00BDE8F041FCF79CBABDE8F0812DE9F843CA
:10446C000546894690461F46BDF82060FFF7B0FF11
:10447C0068B10561457AC761032363F3071545727B
:10448C00C0E905983146BDE8F843FCF781BABDE8B0
:10449C00F8832DE9F8431C4603899DF820709B088E
:1044AC00A3420E4603D800231360BDE8F8831168BD
:1044BC002144994284BF191B11600C2BD2F8009037
:1044CC0028D9072CD0F814802BD8183008234B454A
:1044DC0028BF4B461D4620441A46FFB1314600F01A
:1044EC0014FBA9EB05092E44B9F1000FDDD0C4F182
:1044FC001C054D4528BF4D46201D40442A46BFB1E2
:10450C00314600F002FBA9EB0509D8F800802E44D7
:10451C000024E9E714304FF00008D8E70146304694
:10452C00DDE7083C1B2CDFD9D8F800801C3CF9E7F0
:10453C0001463046E5E70430BFF35B8F50E8003F9F
:10454C00013340E80032002AF8D1BFF35B8F70478B
:10455C00407A00097047437A1B098B4216D9032B0A
:10456C0003D800EB810148697047012903D800EB9F
:10457C0081018869704743690239062903D803EB26
:10458C0081014868704707391B68F6E700207047BF
:10459C000346021DBFF35B8F52E8001F013942E84E
:1045AC00001CBCF1000FF7D1BFF35B8F5B680BB93C
:1045BC00FCF7DEBA70470069704713B5002400940D
:1045CC00FFF767FF02B010BDF8B506460D4614465E
:1045DC001F46214628463A46B047241A0544F8D1CE
:1045EC00F8BD2DE9F0478EB00EAF81460D46FFF7B2
:1045FC00E2FF06464846FFF7ABFF8300073323F084
:10460C000703ADEB030D82460EAC4FF00008D0450E
:10461C0016D14846FFF79CFF0F281ED8DFE810F094
:10462C001900200026002D00360041004E005D00D0
:10463C006E0081009600AD00C600E100FE001D0179
:10464C0041464846FFF787FF44F8280008F1010867
:10465C00DDE731462846FCF7BDFABD46BDE8F087DC
:10466C00226831462846FCF7B5FAF6E7D4E9002370
:10467C0031462846FCF7AEFAEFE7A3680093D4E97D
:10468C00002331462846FCF7A5FAE6E7E3680193D8
:10469C00A3680093D4E9002331462846FCF79AFA24
:1046AC00DBE723690293E3680193A3680093D4E9E1
:1046BC00002331462846FCF78DFACEE76369039355
:1046CC0023690293E3680193A3680093D4E9002360
:1046DC0031462846FCF77EFABFE7A3690493636969
:1046EC00039323690293E3680193A3680093D4E9CD
:1046FC00002331462846FCF76DFAAEE7E3690593D3
:10470C00A36904936369039323690293E368019398
:10471C00A3680093D4E9002331462846FCF75AFAE3
:10472C009BE7236A0693E3690593A3690493636982
:10473C00039323690293E3680193A3680093D4E97C
:10474C00002331462846FCF745FA86E7636A07934F
:10475C00236A0693E3690593A3690493636903933E
:10476C0023690293E3680193A3680093D4E90023BF
:10477C0031462846FCF72EFA6FE7A36A0893636A62
:10478C000793236A0693E3690593A369049363690A
:10479C00039323690293E3680193A3680093D4E91C
:1047AC00002331462846FCF715FA56E7E36A0993CD
:1047BC00A36A0893636A0793236A0693E3690593D4
:1047CC00A36904936369039323690293E3680193D8
:1047DC00A3680093D4E9002331462846FCF7FAF984
:1047EC003BE7236B0A93E36A0993A36A0893636A12
:1047FC000793236A0693E3690593A369049363699A
:10480C00039323690293E3680193A3680093D4E9AB
:10481C00002331462846FCF7DDF91EE7636B0B934A
:10482C00236B0A93E36A0993A36A0893636A079359
:10483C00236A0693E3690593A3690493636903935D
:10484C0023690293E3680193A3680093D4E90023DE
:10485C0031462846FCF7BEF9FFE6A36B0C93636B5D
:10486C000B93236B0A93E36A0993A36A0893636A15
:10487C000793236A0693E3690593A3690493636919
:10488C00039323690293E3680193A3680093D4E92B
:10489C00002331462846FCF79DF9DEE64268816824
:1048AC0010B50446D2E900230068FFF78DFE63685B
:1048BC0000221A6010BD08B5D1E901321B68D05432
:1048CC004A68136801331360CA68934202D10846E0
:1048DC00FFF7E4FF002008BDF8B50D461646044668
:1048EC004718BC4201D12846F8BD14F8011B736867
:1048FC0030465B689847F4E783685A7A32B993F983
:10490C0008000028CCBF002001207047022070470F
:10491C00026873B5956884684FF02003EFF3118635
:10492C0083F31188BFF36F8F237A013B5BB2002BAB
:10493C0023721CD1C4E900336B68A3B9EB7A03F181
:10494C00804301221A602B8903F1804300221A60F4
:10495C001B680193019B0020607286F31188BFF3E2
:10496C006F8F02B070BD98470028E7D1F3E74FF086
:10497C000000BCBF20726FF04400EEE7F8B503688E
:10498C0085689F68064614464FF02003EFF31182AA
:10499C0083F31188BFF36F8F2B7A01335BB22B72C9
:1049AC0082F31188BFF36F8F6A7A32B10CB9002091
:1049BC00F8BDD4E901319847F9E7012B06D13B68E2
:1049CC0033B9BB7A03F1804301221A604CB9EEE78C
:1049DC0098470028F5D1002CE9D0D4E901313046B4
:1049EC0098472B689C420DD013B11B68002BF9D152
:1049FC00002020606B6813B9C5E90044D7E71C6040
:104A0C006C60D5E76FF04400D2E70022FFF7B6BF29
:104A1C0083680020C3E900007047002210B5012113
:104A2C0004461046FCF79AFC0020FCF787FC4FF07C
:104A3C0080430122C3F818250322C3F80423A3687A
:104A4C000020C3E9000010BD38B584682368054612
:104A5C002BB161681A6822608B4208BF6260012228
:104A6C00627203B938BDD3E9012128469047236807
:104A7C00002BF7D061681A6822608B4208BF626015
:104A8C00EFE770477047FCF7D7BC01460068FCF7AE
:104A9C00E7BC08B5FCF736FDBDE80840FCF7ECBBFD
:104AAC0007B5002101A8FDF7D5F803B05DF804FBAC
:104ABC0070B5013905462C4642B111F8013F561E1E
:104ACC002BB92A4404F8013BA242FBD170BD05F876
:104ADC00013B3246EFE7C9B202788A42034600F145
:104AEC00010004D0002AF7D1002918BF0023184672
:104AFC0070470138013910F8013F11F8012F93422A
:104B0C0001D1002BF7D1981A7047F0B581EA000457
:104B1C00A50703460BD0013B0A4491421AD1F0BDC4
:104B2C00002AFCD011F8014B03F8014B013A9C0709
:104B3C00F6D19508AC001E1F0F19B94205D16FF0C4
:104B4C00030606FB05222344E5E751F804CB46F89F
:104B5C0004CFF2E711F8014B03F8014FDDE770B514
:104B6C00C9B203469C0710D141EA012444EA04452A
:104B7C00940803EB8406B3420DD16FF0030505FBDB
:104B8C0004241C44A34209D170BD002AFCD003F8B4
:104B9C00011B013AE6E743F8045BECE703F8011B61
:104BAC00F0E7F0B50346B1FBF2F702FB1715092D40
:104BBC008CBF272600261C4630353544914204F81C
:104BCC00015B06D200222270241A834204D82046AC
:104BDC00F0BD39462346E6E71A78017803F8011947
:104BEC0000F8012BF1E770B5D0E90065720806F00A
:104BFC00010342EAC5729B184FF000014FEA5504BD
:104C0C0044EB0101C0E9003170BDD0E900322DE95F
:104C1C00F04302334FF005074FF0000C42F1000255
:104C2C00B3EB0C06B2FBF7FE07FB0EF162EB0101D6
:104C3C00F20842EA4172B2FBF7F1CA001CEB02081F
:104C4C004FEA51734EEB0309A2FB0723B31AB3FBD4
:104C5C00F7F318EB030449F10005C0E90045BDE882
:104C6C00F0830B68002B70B510DD013B02680B6004
:104C7C0044680A21A2FB015601FB046626F070432E
:104C8C00C0E90053310F3031084670BD3021FBE7CD
:104C9C004FF0FF3070474B68012B07DD0B68187025
:104CAC000B6801330B604B68013B4B600020704775
:104CBC00800000F1A040D0F8003723F44033C0F856
:104CCC000037D0F8003743EA0141C0F800177047AD
:104CDC0010B504688068A468C0692468012904D1EF
:104CEC005840C4F80405002010BD003320FA02F02F
:104CFC004FF0010118BF012300F0010091408342E5
:104D0C0014BFC4F80815C4F80C15ECE770B50468AA
:104D1C008068A468C0692568D5F81465D5F8104575
:104D2C00D5F8045560406C403440604001291CBFEC
:104D3C00D04000F001001860002070BD8368186836
:104D4C0030B558B10024814213D108685CB95C6855
:104D5C001860A14200D158600020086072B9002090
:104D6C0030BD2846EFE720605868814208BF5C6080
:104D7C00F2E705680446002DF3D13AB11A680A60CF
:104D8C00586819600028EAD15960E9E76FF01500FE
:104D9C00E6E72DE9F74F8046856803F47040B0F5DF
:104DAC00804F1E4641D009DCB0F5805F3FD0B0F596
:104DBC00405F3ED090B16FF0150033E0B0F5E04F9E
:104DCC0039D004DCB0F5A04FF5D1032006E0B0F5E6
:104DDC00404F32D0B0F5504FEDD1072006F440775C
:104DEC00B7F5807F2BD0A7F500746342634106F0C2
:104DFC00010C4FEA4C07012947EA0C0718BFD4B243
:104E0C0047EA002040EA830712BFA1464FF01F0972
:104E1C0000244FF0A04A4FF0010B06F00203A1450D
:104E2C000FD2002003B0BDE8F08F0220D6E701209E
:104E3C00D4E70420D2E70520D0E70620CEE70323F1
:104E4C00D5E7D8F800209268117904F01F0242EAE5
:104E5C00411202F5E0724AF822700BFA04F2A968CA
:104E6C00002B25D01143A96069690193B0064CBF92
:104E7C00114391436961A96970064CBF1143914379
:104E8C00A961296970074CBF114391432961E969F4
:104E9C0030064CBF0A4321EA0202EA612146404631
:104EAC00FDF780FC0028BDD10134E4B2019BB6E7CC
:104EBC0021EA0201D7E701292DE9F04118BFD4B24C
:104ECC008768064612BF25461F2500244FF00108AF
:104EDC00AC4202D90020BDE8F081FB6808FA04F26C
:104EEC0023EA0203FB6021463046FDF75BFC0028F9
:104EFC00F1D10134E4B2EBE701292DE9F04118BFFF
:104F0C00D4B28768064612BF25461F2500244FF0F1
:104F1C000108AC4202D90020BDE8F081FB6808FA18
:104F2C0004F21343FB6021463046FDF73BFC00289E
:104F3C00F2D10134E4B2ECE782680B4692E803004C
:104F4C0083E80300002070470023435082B043588D
:104F5C000193019B02B0704738B51D4602230B71BB
:104F6C000B684A7104467BB112F0040F0CBF82210E
:104F7C009221100748BF41F02001D306236848BF97
:104F8C0021F08001C3F8001320684FF48271FFF701
:104F9C00DBFF206812F0800F05BF0123435140193D
:104FAC00002038BD38B505460C46FEF7FDF850B963
:104FBC002B6801225A602846FEF7F6F818B9002C27
:104FCC00F9D1204638BD0124FBE74FF02002EFF366
:104FDC00118382F31188BFF36F8FFEE7FFF752BD89
:104FEC0030B50024C0E90232C0E905440161A34296
:104FFC0002D1C0E9000030BD45690D60013441614A
:10500C001144F4E7437BDB0603BF8069B0FA80F000
:10501C0040090020704710B54FF02003EFF31184C6
:10502C0083F31188BFF36F8F00F047F884F3118876
:10503C00BFF36F8F10BD38B504464FF02003EFF36C
:10504C00118583F31188BFF36F8F01468068FEF7DB
:10505C0023FB637B23F00203637385F31188BFF397
:10506C006F8F0023A36038BD08B539B9FEF7ACFAD1
:10507C0020B10846BDE80840FCF70CB981F3118853
:10508C00BFF36F8F08BD08B5024638B9FEF79CFA1E
:10509C0020B11046BDE80840FCF7FCB882F311883B
:1050AC00BFF36F8F08BD4FF02003EFF3118083F334
:1050BC001188BFF36F8FFFF7E6BF0368984214BFE8
:1050CC0018460020704750F8103C70B50446A0F10B
:1050DC001805CBB14FF02003EFF3118683F3118841
:1050EC00BFF36F8F294650F8100CFEF7D5FA14F861
:1050FC000B3C23F0020304F80B3C86F31188BFF33E
:10510C006F8F002344F8103C14F80B3C23F014036D
:10511C0004F80B3C2846FFF775FF20B12846BDE884
:10512C007040FEF709BB70BD38B54FF02003EFF3AC
:10513C00118283F31188BFF36F8FFFF7BEFF044614
:10514C0082F31188BFF36F8FC8B14FF02003EFF3D8
:10515C00118583F31188BFF36F8F01468068FEF7CA
:10516C009BFA637B23F00203637385F31188BFF30F
:10517C006F8F0023A36004F1180000F056F820464E
:10518C0038BD38B54FF4004140F2E7340025C1FB7F
:10519C00004520464FF47A7200232946FAF798FF0F
:1051AC00044648B9FEF72CFC4FF47A7284FB0223B8
:1051BC00D00B40EA434038BDFEF7E8FB0446F3E76A
:1051CC00437BDB0603BF8069B0FA80F04009002006
:1051DC0070476FF04600704700207047036D10B5A4
:1051EC00044603B198472046FFF7EAFF38B1204642
:1051FC00FEF750FB637B43F00803637310BD637BC6
:10520C009B0702D52046FFF716FFA369002BF1D0B0
:10521C0004F1180000F009F8ECE703730023427363
:10522C008173C373C0E90633704710B54FF0200289
:10523C00EFF3118482F31188BFF36F8F03683BB1D6
:10524C00FEF74AFD002084F31188BFF36F8F10BD69
:10525C006FF01500F7E710B54FF02003EFF3118452
:10526C0083F31188BFF36F8FFEF74AFD84F3118827
:10527C00BFF36F8F10BD70B504460E464FF0200380
:10528C00EFF3118583F31188BFF36F8FFEF738FDB1
:10529C00012805DDA04203DD31462046FBF76AFFFD
:1052AC0085F31188BFF36F8F70BD08B5FEF7DCFD79
:1052BC0008BD0023C0E9061200F110024362C0E9E8
:1052CC000422C0E900338362704710B50446FFF72F
:1052DC00ACFF00BBE3690BB12046984704F110000A
:1052EC000021FFF798FE0446A8B1FFF7A4FE637BEC
:1052FC00DB0604D1A36913B92046FEF71DFA4FF063
:10530C002003EFF3118083F31188BFF36F8FBDE897
:0A531C001040FFF7B8BE10BD704747
:02532600FFFF87
:0853280058AEFF7F01000000F8
:10533000000000005510000000000000934A00002B
:1053400000000000934A000000000000934A0000A3
:1053500000000000934A000000000000934A000093
:10536000000000006926000000000000934A0000D1
:1053700000000000934A000000000000934A000073
:1053800000000000934A000000000000934A000063
:1053900000000000934A000000000000934A000053
:1053A00000000000934A000000000000934A000043
:1053B00000000000934A000000000000BD10000043
:1053C00000000000934A000000000000934A000023
:1053D00000000000934A000000000000934A000013
:1053E00000000000934A000000000000934A000003
:1053F00000000000934A000000000000934A0000F3
:1054000000000000934A000000000000934A0000E2
:1054100000000000934A000000000000934A0000D2
:1054200000000000934A000000000000934A0000C2
:1054300000000000934A000000000000934A0000B2
:1054400000000000934A000000000000934A0000A2
:1054500000000000934A000000000000934A000092
:0854600000000000934A000067
:1054680037570000BD050000000000003757000056
:10547800ED0500000000000037570000391000005B
:1054880000000000BB5700001D4A0000D055000076
:10549800C5570000274A0000C4550000DD5700002A
:1054A800FD1000000000000037570000F11B00004D
:1054B800000000009256000039260000F855000050
:1054C800C25C00000D290000005600009D57000036
:1054D8001D2D0000D15C000037570000E9340000A2
:1054E8000000000037570000553F00000000000092
:1054F800CF57000003000000CE5600000300000054
:105508007D5B000003000000BD5D0000030000009B
:10551800B557000003000000C85C0000030000004D
:08552800995600000300000089
:105530008855000050010020A45700000100000021
:105540000200000048550000000000009D560000C9
:105550002400020700000020A55600001E000B11C9
:10556000000000007D57000085570000000000008B
:1055700000000000000000008D570000915700005F
:105580009557000099570000D50F0000000000005B
:1055900000000000B10F0000A50F0000BD0F0000CB
:1055A000E548000058010020C6020020010000006C
:1055B000174A00001D490000894900000000000052
:1055C0000549000000000000000000000001000488
:1055D00000000000000000000401080C9F4D0000C6
:1055E000DD4C0000194D0000494D0000054F000042
:1055F000C34E00000000000000000050000000004A
:1056000000C001400000000091FFFFFF0004000007
:10561000E8030201C01700200400000000000000A1
:105620000000000061290000FD280000BD2C0000E2
:10563000E92C00003D2B0000512B0000454F0000DD
:10564000E0170020401800204C180020701800209F
:1056500070180020F5FFFFFFE15C0000EF5C000028
:10566000035D0000125D00001E5D00004275747451
:105670006F6E20302070726573736564210A00427A
:105680007574746F6E203120707265737365642158
:105690000A004750494F5F3000736F6300464C412A
:1056A00053485F30005352414D5F30006C6F676765
:1056B000696E67003C6C6F675F737472647570200D
:1056C000616C6C6F63206661696C65643E006C6F31
:1056D0006700617267756D656E7420256420696E60
:1056E000206C6F67206D6573736167652022257379
:1056F00022206D697373696E67206C6F675F7374C6
:105700007264757028292E00253032782000202000
:1057100020007C002563000D00206D6573736167B8
:1057200065732064726F70706564202D2D2D0D0AD5
:105730001B5B306D000D0A001B5B313B33316D2D5F
:105740002D2D20001B5B306D0025733A2000257342
:105750002E005B2530386C755D20005B253032648F
:105760003A253032643A253032642E253033642CA9
:10577000253033645D20003C25733E20001B5B31E7
:105780003B33316D001B5B313B33336D006572720F
:105790000077726E00696E66006462670055415260
:1057A000545F30006C6F675F6261636B656E645F4E
:1057B0007561727400706F77657200434C4F434B94
:1057C0005F33324B00434C4F434B5F31364D0063E8
:1057D0006C6F636B5F636F6E74726F6C0073797361
:1057E0005F636C6F636B0072302F61313A20203041
:1057F0007825303878202072312F61323A202030DD
:105800007825303878202072322F61333A202030CA
:1058100078253038780072332F61343A2020307880
:1058200025303878207231322F69703A2020307854
:1058300025303878207231342F6C723A202030783D
:10584000253038780020787073723A20203078251F
:10585000303878004661756C74696E6720696E73C4
:105860007472756374696F6E2061646472657373BA
:1058700020287231352F7063293A2030782530384E
:1058800078002A2A2A2A2A20425553204641554C7C
:1058900054202A2A2A2A2A002020537461636B6923
:1058A0006E67206572726F720020205072656369A6
:1058B0007365206461746120627573206572726F14
:1058C0007200202042464152204164647265737325
:1058D0003A2030782578002020496D707265636920
:1058E0007365206461746120627573206572726FE4
:1058F00072002020496E737472756374696F6E2034
:10590000627573206572726F72002A2A2A2A2A2011
:105910004D5055204641554C54202A2A2A2A2A0007
:105920002020537461636B696E67206572726F72B9
:105930002028636F6E746578742061726561206DD4
:1059400069676874206265206E6F742076616C6987
:105950006429002020556E737461636B696E672043
:105960006572726F7200202044617461204163632C
:105970006573732056696F6C6174696F6E002020C7
:105980004D4D46415220416464726573733A203034
:10599000782578002020496E737472756374696F7E
:1059A0006E204163636573732056696F6C6174691F
:1059B0006F6E002020466C6F6174696E672D706F8A
:1059C000696E74206C617A792073746174652070DB
:1059D0007265736572766174696F6E206572726F3D
:1059E00072002A2A2A2A2A20555341474520464137
:1059F000554C54202A2A2A2A2A00202044697669F4
:105A000073696F6E206279207A65726F002020556D
:105A10006E616C69676E6564206D656D6F7279206B
:105A20006163636573730020204E6F20636F707233
:105A30006F636573736F7220696E737472756374CC
:105A4000696F6E73002020496C6C6567616C206C17
:105A50006F6164206F66204558435F52455455522C
:105A60004E20696E746F205043002020496C6C6595
:105A700067616C20757365206F66207468652045CA
:105A8000505352002020417474656D707420746FFF
:105A9000206578656375746520756E646566696EEA
:105AA000656420696E737472756374696F6E002A21
:105AB0002A2A2A2A2048415244204641554C542043
:105AC0002A2A2A2A2A002020427573206661756CD2
