:10000000F8050020510C0000ED280000C90B00008D
:10001000C90B0000C90B0000C90B0000C90B000090
:10002000C90B0000C90B0000C90B0000C10A000089
:10003000C90B0000C90B00006D0A0000D9280000A0
:10004000110C0000110C0000110C0000110C00003C
:10005000110C0000110C0000110C0000110C00002C
:10006000110C0000110C0000110C0000110C00001C
:10007000110C0000110C0000110C0000110C00000C
:10008000110C0000110C0000110C0000110C0000FC
:10009000110C0000110C0000110C0000110C0000EC
:1000A000110C0000110C0000110C0000110C0000DC
:1000B000110C0000110C0000110C0000110C0000CC
:1000C000110C0000110C0000110C0000110C0000BC
:0C00D000110C0000110C0000110C0000CD
:1000DC0053B94AB9002908BF00281CBF4FF0FF31A3
:1000EC004FF0FF3000F00CB8ADF1080C6DE904CE08
:1000FC0000F008F8DDF804E0DDE9022304B07047F5
:10010C00704700BF2DE9F04F099F154604468E46F7
:10011C001E46002B40F0CC808A42B2FA82FC4CD9AD
:10012C00BCF1000F0BD0CCF1200801FA0CFE20FA28
:10013C0008F802FA0CF548EA0E0E00FA0CF44FEA35
:10014C0015491FFA85F8BEFBF9FA210C09FB1AE3D5
:10015C000AFB08FB41EA03439B452AD9EB180AF139
:10016C00FF3004D29B4502D9AAF102002B44A3EB29
:10017C000B03A4B2B3FBF9F209FB123302FB08F830
:10018C0044EA0344A04516D92C1902F1FF3303D2DB
:10019C00A04501D9931E2C44A4EB080443EA00406B
:1001AC0027B124FA0CF400233C607B603146BDE897
:1001BC00F08F5046DBE71346EEE702B9FFDEBCF1E9
:1001CC00000F2ED18B1A01264FEA154EAAB2B3FBA3
:1001DC00FEF8210C0EFB183308FB02F941EA03432D
:1001EC00994561D9EB1808F1FF3004D2994502D931
:1001FC00A8F102002B44A3EB0903A4B2B3FBFEF15C
:10020C000EFB11334A4344EA0344A2424ED92C1943
:10021C0001F1FF3303D2A24201D98B1E2C44A41A44
:10022C00BCE7CCF1200E02FA0CF521FA0EF901FA1A
:10023C000CF320FA0EFE4EEA03034FEA154800FABF
:10024C000CF4B9FBF8F11FFA85FE08FB1192180C9F
:10025C0001FB0EF640EA0242964221D9AA1801F19E
:10026C00FF3003D2964201D9881E2A44921B9BB2BE
:10027C00B2FBF8F908FB192209FB0EFE43EA024314
:10028C009E450FD9EB1809F1FF3604D29E4502D9D1
:10029C00A9F102062B44A3EB0E0346EA004693E7B2
:1002AC000846E3E74E46F6E74046A4E70B46B6E7BA
:1002BC008B4205D90FB1C7E900010026304675E71E
:1002CC00B3FA83FCBCF1000F0FD18B4201D38242F5
:1002DC0009D8841A61EB030E0120002F6AD0C7E9FC
:1002EC00004E002662E76046F7E7CCF1200E03FAD9
:1002FC000CF322FA0EF521FA0EF41D4301FA0CF35D
:10030C0020FA0EF10B434FEA154A00FA0CF6B4FB37
:10031C00FAF91FFA85F80AFB19401C0C09FB08F1C5
:10032C0044EA0044A14202FA0CF23FD92C1909F11B
:10033C00FF3004D2A14202D9A9F102002C44641A64
:10034C009BB2B4FBFAF90AFB194409FB08F843EA1F
:10035C00044188452CD9691809F1FF3304D288452A
:10036C0002D9A9F10203294443EA0040A1EB080198
:10037C00A0FB02894945C2464C4602D306D14645EC
:10038C0004D2B8EB020A69EB0504013897B1B6EB5D
:10039C000A0361EB040606FA0EFE23FA0CF34EEA8E
:1003AC00030326FA0CF6C7E900369AE74846C6E777
:1003BC004B46D9E73E46F9E608B5054802F0A2F9E6
:1003CC00044B30221A70044A1368DB43136008BDD7
:1003DC00AC300000540F00200800002008B5054880
:1003EC0002F090F9044B31221A70044A1368DB4373
:1003FC00136008BDBF300000540F00200C0000201B
:10040C0008B5054802F07EF9044B32221A70044AF2
:10041C001368DB43136008BDD2300000540F00207A
:10042C001000002008B5054802F06CF9044B33228B
:10043C001A70044A1368DB43136008BDE5300000F2
:10044C00540F0020140000208FB58848884FDFF827
:10045C00848202F057F911228649874801F005FF82
:10046C0012228449854801F000FF132281498448F7
:10047C0001F0FBFE14227F49824801F0F6FE82480F
:10048C0002F040F9814802F03DF9814B79498148ED
:10049C000D2201F043FF804B764980480E2201F07B
:1004AC003DFF7F4B73497F480F2201F037FF7E4B96
:1004BC0070497E48102201F031FF7D4802F022F98C
:1004CC00012300936E4A6F4B6C496B4801F0DEFEC2
:1004DC003C4601F0BDFE3B78303B032BF9D8DFE8FE
:1004EC0003F0022C6393734D73482A68302102F099
:1004FC0009F92B685D1C40F0B58000230093604A1D
:10050C00604B5E495C4801F0C1FE21786B4802F0FB
:10051C00F9F82378313B022B08D801230093584A71
:10052C00584B5649544801F0B1FED2E701F090FE09
:10053C002178624802F0E6F8EFE7614D61482A68DD
:10054C00312102F0DFF82B68581C40F08B8000261C
:10055C0001254C4B4A4A49494748CDE90265CDE94A
:10056C00006501F0B3FE2178544802F0CBF82378F3
:10057C00302BD2D0323BAB42CFD901F069FE21787F
:10058C004E4802F0BFF82378302BC6D0323BAB423A
:10059C00C3D9CDE90256019600953A4B384A3749F2
:1005AC00354801F093FE94E7474D48482A683221BC
:1005BC0002F0A8F82B68591C54D101250026314BA8
:1005CC002F4A2E492C48CDE90256CDE9006501F0A1
:1005DC007DFE2178394802F095F82378A3F130029A
:1005EC00AA429AD9332B98D001F032FE21783348A5
:1005FC0002F088F82378A3F13002AA428DD9332B6C
:10060C008BD0CDE90265C6E7D8F8002030483321FD
:10061C0002F078F8D8F800305A1C23D101250026B6
:10062C00184B174A15491448CDE90255CDE9006617
:10063C0001F04CFE2178214802F064F82378303B1D
:10064C00022B7FF66AAF01F003FE21781B4802F003
:10065C0059F82378303B022B7FF65FAFCDE9026669
:10066C00019599E7002B7FF434AF56E7F830000082
:10067C00540F00200C310000680000207400002092
:10068C00800000208C000020133100001C31000081
:10069C00C503000018000020E90300002C00002016
:1006AC000D04000040000020310400005400002024
:1006BC00363100000800002042310000713100008A
:1006CC000C0000208831000010000020B731000021
:1006DC00E6310000140000200B6801330B60014B65
:1006EC001B681847380F00202DE9F04F85B09B464A
:1006FC000E9CDFF88890012CB8BF0124012B0CBF95
:10070C0030232023164682468846029301250A2769
:10071C000022B6FBF9F301930AB9B1451DD8019B30
:10072C00414603F13000D04701350122019B013FC6
:10073C00012F09FB13664FF00A03B9FBF3F9E8D15B
:10074C00414606F13000D047BBF1030F02D1641BC8
:10075C00002C0EDC05B0BDE8F08FBC42E6DBBBF133
:10076C00020FE3D84146029803920135D047039A11
:10077C00DCE741462020D047013CE9E700CA9A3B20
:10078C00014B1860704700BF380F002007B50023DD
:10079C00019302460B46034801A901F043FE03B046
:1007AC005DF804FBE50600000A2838B50446074D41
:1007BC0004D1286843680D215B6898472868436812
:1007CC00E1B25B689847204638BD00BF9800002016
:1007DC0010B5044C204600F007FC2046BDE8104044
:1007EC00FFF7CEBFB507000008B5044801F01CF8B0
:1007FC00034B1860FFF7ECFF002008BD153200001A
:10080C0098000020154B07B51A6882B14FF0804252
:10081C00D2F80423D1070AD500221A601B681048AD
:10082C000093009B83685B7A0BB901F088FF0D4B3A
:10083C001A6882B14FF08042D2F8042392070AD58D
:10084C0000221A601B680193019B074803B05DF8F6
:10085C0004EB01F074BF03B05DF804FB0001004031
:10086C007C0F002004010040880F00200D4B00225B
:10087C00C3F840214FF02002EFF3118182F311886D
:10088C00BFF36F8F084AD3F804051368C01A20F021
:10089C007F400344136081F31188BFF36F8F01F025
:1008AC004FBC00BF00100140B400002073B51C48C1
:1008BC0000F0BAFF80B343681A4D1B6800219847BB
:1008CC00012600244FF48033C5F80845C5F840656F
:1008DC00C5F8043303F1804303F58A534FF4003217
:1008EC001C601B680193019B0F4B3146C3F88021A0
:1008FC001120224600F0FEF8112000F0EBF80B4B13
:10090C001E602E60D5F80435334423F07F43C5F8C0
:10091C004035204602B070BD4FF0FF30FAE700BF03
:10092C001C3200000010014000E100E00810014002
:10093C00F0B5254EB0F1FF3F08BF30464FF0200315
:10094C00EFF3118583F31188BFF36F8F1F49204B91
:10095C00D1F804451B68E21A22F07F47120219D421
:10096C00421E22EAE272B242A8BF3246781C104400
:10097C00B04294BF18189819041B24F07F4420F03F
:10098C007F43022CC1F8403506D985F31188BFF39B
:10099C006F8FF0BD0022E9E7D1F804350D4AC31A78
:1009AC0023F07F435C1E944205D90B4B4FF400326D
:1009BC00C3F80021E9E7012B02BF023020F07F4091
:1009CC00C1F84005E1E700BFFEFFFF000010014049
:1009DC00B4000020FEFF7F0000E100E04FF0200299
:1009EC00EFF3118382F31188BFF36F8F064AD2F8AD
:1009FC000405064A1268801A20F07F4083F31188A0
:100A0C00BFF36F8F704700BF00100140B40000208F
:100A1C0004488168406A884203D003494FF08052F1
:100A2C000A607047B001002004ED00E0094A0A4951
:100A3C00936809689966094958664B6843F0805376
:100A4C004B60002383F31188BFF36F8F9368986E0C
:100A5C00704700BFB0010020A830000000ED00E09E
:100A6C0012498A684FF028001044EFF3098C80E893
:100A7C00F01F202080F31188BFF36F8F0C4F4FF0C5
:100A8C0000664A6A8A603E60506E0023536680F3AB
:100A9C00118804B5104601F02AFFBDE8044002F1AC
:100AAC00280090E8F01F8CF309887047B0010020F3
:100ABC0004ED00E01EF0040F0CBFEFF30880EFF321
:100ACC000980816911F8021C0229FFD001B501F0DF
:100ADC0003FF01BD43B2002B08DB012200F01F0015
:100AEC0002FA00F05B09024A42F82300704700BF8B
:100AFC0000E100E043B2002BA8BF03F1604301F119
:100B0C0001014FEA4111AEBF03F5614300F00F0044
:100B1C00034BC9B2ACBF83F800131954704700BF24
:100B2C0014ED00E073B51E460A9B00938C18099BCC
:100B3C00054602F01DF9A4F120030A4A23F007032D
:100B4C0022F001029A61069A5A60079A9A60089AF2
:100B5C00DA604FF080721E60DA61AB6400236B6662
:100B6C0002B070BDFD230000F8B505460C461746D3
:100B7C001E4600F079F90A4B3C4428469D6024F04F
:100B8C00070401F0B4FE304684F30988002163B6F3
:100B9C0081F31188BFF36F8F0022002301F028FC32
:100BAC00B0010020014910220A60704710ED00E0EE
:100BBC00404080F3118830BF704700BFEFF30880CE
:100BCC00EFF30981724601B500F0A0F801BD00BF3A
:100BDC0030BFFFF7FDBF00BF08B5084B084A23F034
:100BEC007F039360BFF34F8FBFF36F8F00F05CFEFA
:100BFC0000F064FE00F006F900F098FE0000000022
:100C0C0000ED00E001B572B60B4A106A00281EBF59
:100C1C000021116202F027F862B6EFF30580A0F113
:100C2C0010004FEAC0000549014409C99847BDE8C6
:100C3C000140034908470000B00100206C2E000061
:100C4C001D0A000001F0B6FE202080F31188084830
:100C5C004FF40061401880F30988EFF314800221EF
:100C6C00084380F31488BFF36F8FFFF7B5FF0000C4
:100C7C00380700200C4B9A6A9A6A9A6A920708D530
:100C8C005A6B9A6A120604D518B19A6A22F080023D
:100C9C009A62054B9A6A9A6A9A6A9A6A002042F09A
:100CAC00FF029A620870704700ED00E00D4B9A6AE3
:100CBC009A6A9A6A920508D59A6B9A6A120404D5B4
:100CCC0018B19A6A22F400429A62064B9A6A9A6A9E
:100CDC00D20558BF9A6A9A6A002042F47F429A62FF
:100CEC000870704700ED00E0074B9A6A9A6A9A6A9E
:100CFC009A6A9A6A9A6A9A6A6FEA02426FEA12428E
:100D0C009A620020704700BF00ED00E070B5364BD2
:100D1C005B688AB0C3F30803002585F31188BFF321
:100D2C006F8F02F07F44B4F17F4F12D102F00C04AC
:100D3C00082C0ED014074EBF0E4606460125002285
:100D4C00033B8DF80720032B47D8DFE803F0043E64
:100D5C00423B2E46F3E7244BDA6A92073DD4DC6A19
:100D6C0014F0804408D028331B78EBB10DF1070147
:100D7C000120FFF77FFF04469DF8073093B920222E
:100D8C00314602A801F0C7FD099B45B3C3F3080225
:100D9C0022B96FEA53236FEA4323099302A9204631
:100DAC0001F098FD0AB070BD104B1B782BB10DF102
:100DBC0007010120FFF77AFFDDE70D4B1C88A4B279
:100DCC00002CD9D0FFF790FFD5E70DF107010020DB
:100DDC00CFE70DF107010020ECE70024CCE723F46A
:100DEC00FF7323F00103D8E700ED00E029ED00E0EC
:100DFC002AED00E0024A536943F010035361704737
:100E0C0000ED00E0044800232021C2180133272BF9
:100E1C0082F80013F9D1704700E100E038B50546BF
:100E2C004FF02003EFF3118483F31188BFF36F8F1E
:100E3C0001F0ADFF0A4B9B68AB420BD1094B5A68D2
:100E4C00C2F3080212B92046FFF7F0FD5A6842F0CF
:100E5C0080525A602046BDE8384001F033BF00BFD5
:100E6C00B001002000ED00E01FB5084B0193084BCA
:100E7C000293084B039301AB0093074A074B0121E4
:100E8C00684600F091F805B05DF804FB0000002006
:100E9C000000000000000B060000002000000120F4
:100EAC00F0B5204F00268E4201DB1046F0BD50F805
:100EBC0026C0DCF8044094B35BB104F1FF3E14EAA5
:100ECC000E0F1AD11F2C18D9DCF800501EEA050F92
:100EDC0013D1202CDCF80050DCF808C0D2B20FD9AA
:100EEC00B4F1004F0ED8013CB4FA84F4C4F11F04E1
:100EFC006400072A4CEA040406D96FF01502D4E703
:100F0C000824F6E73E24F4E725F01F05154345F0C9
:100F1C00100544F00104BA60FD6001323C610136F9
:100F2C00C1E700BF90ED00E0034B05225A60BFF310
:100F3C004F8FBFF36F8F704790ED00E0BFF35F8F63
:100F4C00014B00225A60704790ED00E0134908688D
:100F5C00082810B51ED8FFF7F1FF114C4968002284
:100F6C00904201F10C0105D10E4B1870FFF7DCFF1C
:100F7C00002010BDA26051F80C3C23F01F0313435A
:100F8C0043F01003E36051F8043C43F00103236188
:100F9C000132E5E74FF0FF30EBE700BF3C300000DB
:100FAC0090ED00E0F001002010B5034C01232278F5
:100FBC00FFF776FF207010BDF001002008B5084A3D
:100FCC0000231278FFF76CFF10F1160F03D0054BBE
:100FDC000022072800DD08BD98601A610130F8E78F
:100FEC00F001002090ED00E0014B1860704700BF4D
:100FFC003C0F00204FF02003EFF3118283F3118894
:10100C00BFF36F8F06490123C1F840354FF0804183
:10101C00C1F8783582F31188BFF36F8F00207047C9
:10102C0000E0014008B5094B1A786AB90121197022
:10103C0006200521FFF75EFD0620FFF74BFD044B54
:10104C004FF00042C3F80423002008BDF10100203A
:10105C000060004073B50368554D9B688268D5F8F5
:10106C000443187901F01F0343EA4013E4B2002053
:10107C0000F5A27655F82660C6F30426B34275D166
:10108C0024FA00F6F60771D5840004F1804404F5C7
:10109C00C044D4F8106526F00106C4F8106501248C
:1010AC0004FA00F0C5F808039C0004F1A044D4F83D
:1010BC00000720F44030C4F800079068C84010F0D6
:1010CC00010051D0D068C84010F001004CD05069DC
:1010DC00C84010F0010056D09069C840C0074AD4EF
:1010EC001069D269C84022FA01F100F0010001F048
:1010FC000101884214BF012102212D4D002404F569
:10110C00A27255F8220010F0030036D1A20002F1B1
:10111C00804202F5C0421B02D2F8106503F4F8536A
:10112C0043EA014126F4473604F1400326F44076A5
:10113C009B00C2F810659BB2D2F8106503F1804396
:10114C0003F5C0433143C2F8101518601B680193B6
:10115C00019BD2F8103543F00103C2F8103501237E
:10116C0003FA04F4C5F8044302B070BD013008283A
:10117C007FF47EAF98E70321BFE70134082CBED182
:10118C006FF01200F0E71369D269534023FA01F1B2
:10119C00D4F8003711F0010F23F4403314BF4FF48F
:1011AC0000324FF440321343C4F80037DCE700BF81
:1011BC00006000402DE9F34153490D68002D67D0C4
:1011CC00524B9A681B689E68D2E902030340D2E92D
:1011DC000504204323EA00033068D4691269D0F86F
:1011EC0010055440444023EA040401200027002B3E
:1011FC0038D10B600B680093009B454800230126F7
:10120C001F46D0F8042306FA03F1114213D09A00BA
:10121C0002F1804202F5C242116861B103F5A2717C
:10122C0050F82110176012680192C1F3042106FADC
:10123C0001F1019A0C430133082BE2D154BB75B177
:10124C00324B99681B689E68D1E902231340D1E99F
:10125C000520024323EA0203012400258BBB02B0C4
:10126C00BDE8F081034210D096F804C007F01F02CD
:10127C0042EA4C12920002F1A04223EA0003D2F897
:10128C0000C72CF4403CC2F800C701374000AEE761
:10129C002C46B2E71D4FD7F80880D8F8001000296B
:1012AC00CDD00E68D8F80C308A682340134203D096
:1012BC004B68224638469847002EC0D031463668D7
:1012CC00F0E71C421CD03079CF6905F01F0242EACE
:1012DC00401208699200784002F1A042E84010F0F8
:1012EC00010FD2F8000718BF4FF4003720F440303C
:1012FC0008BF4FF440373843C2F8000723EA040311
:10130C0001356400AAE700BF7C610040B80F0020E3
:10131C0000600040024BD3F88004C3F8800470478F
:10132C000020004030B54B79012B20D18B79032B59
:10133C001DD1CA792AB1012A19D103689B681B787F
:10134C00ABB10C7914B1022C11D10E240B6847F6F9
:10135C001225AB425FD027D8B3F5965F5ED012D87A
:10136C00B3F5167F5CD005D8B3F5967F5BD06FF0E4
:10137C0022004FE0B3F5966F58D0B3F5166FF6D147
:10138C004FF41D233BE0B3F5615F52D004D8B3F5A5
:10139C00165FECD1304B32E0B3F5964F4CD0B3F531
:1013AC00E14FE4D12D4B2AE0B3F5E13F46D011D803
:1013BC004DF6C025AB4243D004D8B3F5164FD6D169
:1013CC00274B1CE0B3F5614F3DD0B3F5963FCED122
:1013DC00244B14E0B3F5E12F37D008D8B3F5613FB7
:1013EC0035D0214DAB42C2D14FF0806307E0B3F54D
:1013FC00612F2ED01D4DAB42B9D14FF080531C4DF7
:10140C002243C5F82435C5F86C25836803C983E8E5
:10141C000300002030BD4FF40003F0E7154BEEE75E
:10142C004FF41C33EBE74FF4A033E8E74FF49E2363
:10143C00E5E74FF46C13E2E70F4BE0E70F4BDEE709
:10144C004FF46503DBE70E4BD9E70E4BD7E70E4B9A
:10145C00D5E70E4BD3E700BF0050270000F0750016
:10146C0000509D0000903A0190D0030040420F00C4
:10147C000020004000B0130000A04E0000E0D70197
:10148C0000F0EB0000705F0700B0AF0300D0BE0EA1
:10149C00084B1A6882B052B1002018601B68019387
:1014AC00019B054BD3F818350B7002B070474FF009
:1014BC00FF30FAE70821004000200040094B0022D1
:1014CC001A6082B01A680192019A074A01201060D2
:1014DC00C2F814151A68002AFCD0044B01221A60B9
:1014EC0002B070471C210040082000400C20004036
:1014FC004FF0A04337B5164C4022C3F80825032102
:10150C0000220825C3F81817C3F82027C4F814556F
:10151C000625C4F80C552025C3F80855C3F8141734
:10152C00C3F81C270523C4F808350723C4F8103565
:10153C008168FFF7F7FE48B90423C4F80035054B62
:10154C0018601B680193019B0123236003B030BD1D
:10155C000020004008210040044B1868421C04BFC6
:10156C00034B1878831F58425841704730010010C4
:10157C00E00F00F0074B1B78062B09D1064B1B68BC
:10158C00C3F30313033B032B02D8044AD05C70470C
:10159C0000207047E00F00F0E80F00F04A32000026
:1015AC0008B5FFF7D9FF28B17C4B7D4A1B68C3F304
:1015BC0004231360FFF7DEFF10B17A4B7A4A1A60EE
:1015CC00FFF7CAFF28B1794B794A1B68C3F3423342
:1015DC001360FFF7CFFF20B1764AD36823F08073F6
:1015EC00D360FFF7B9FF40B14FF080430022C3F83E
:1015FC000C21C3F81021C3F83825FFF7BBFF10B13D
:10160C006D4B03221A60FFF7B5FF40B16B4B0522FF
:10161C001A6001229A6700229A603F225A60684B36
:10162C001A68511C0BBF674B674B1A781B6802BFBB
:10163C0008331B68C3F30313062A4DD1033B032B5A
:10164C0003D8624AD35C002B46D04FF08052604BDB
:10165C00D2F80414C3F82015D2F80814C3F82415D2
:10166C00D2F80C14C3F82815D2F81014C3F82C15A2
:10167C00D2F81414C3F83015D2F81814C3F8341572
:10168C00D2F81C14C3F84015D2F82014C3F8441532
:10169C00D2F82414C3F84815D2F82814C3F84C1502
:1016AC00D2F82C14C3F85015D2F83014C3F85415D2
:1016BC00D2F83414C3F86015D2F83814C3F8641592
:1016CC00D2F83C14C3F86815D2F84014C3F86C1562
:1016DC00D2F84424C3F87025FFF73EFF28B13D4BE8
:1016EC003D4A1B6803F04F031360FFF735FF48B109
:1016FC004FF08043D3F80024D20744BF6FF00102AF
:10170C00C3F800242E4B1B68062B09D12E4B1B68EB
:10171C00033B022B81BF314A136843F4806313608F
:10172C004FF01023D3F80022002A03DBD3F8043245
:10173C00002B2FDA2A4B0122C3F80425D3F80024FE
:10174C00002AFBD04FF010221521C2F80012D3F85A
:10175C000024002AFBD04FF010231522C3F80422DA
:10176C001F4B1A46D3F800140029FBD00021C3F8F4
:10177C000415D2F80034002BFBD0BFF34F8F19495E
:10178C00194BCA6802F4E0621343CB60BFF34F8F6E
:10179C0000BFFDE7154B164A1A6008BD2403001064
:1017AC004035014074C007400DF0ADBA4402001042
:1017BC003C050040F0ED00E0A00500401056004054
:1017CC0030010010E00F00F0340100104E32000028
:1017DC0000C0004058020010E40E00403C170040CE
:1017EC0000E0014000ED00E00400FA05480F002085
:1017FC000090D0030A4B70B518700A4B53F8204078
:10180C000130002653F82050A54200D870BD236843
:10181C0020465B68984700B166600C34F4E700BF63
:10182C00F201002094300000104B70B5104C0546AE
:10183C001E469C4204D10E4CB44209D1002412E045
:10184C0062681AB122681268AA420CD00C34F0E714
:10185C0063680BB90C34EFE723682846196801F06C
:10186C004EF80028F6D1204670BD00BFC40F0020F2
:10187C00580F002008B50B4D4FF02002EFF31183E9
:10188C0082F31188BFF36F8F01F0B6FA01210228A1
:10189C000446D8BF084601F0BFFA2C62FFF788F95E
:1018AC00EAE700BFB00100200248034A0021121AE7
:1018BC0001F05BB800000020F401002008B50648D8
:1018CC00064A0749121A01F026F8064A0649074843
:1018DC00BDE8084001F01FB8380F0020D80F0020D9
:1018EC00A432000000000000A43200000000002020
:1018FC0008B50220FFF77EFF084A0949094800F0A5
:10190C0001FF0320FFF776FF00F044FBFEF79CFD80
:10191C00054A137B23F00103137308BDBE3000008E
:10192C0052320000723200004401002080B5364B68
:10193C00A2B083F30888354C354E636943F40073C9
:10194C0063610025E02384F82230E57725766576FF
:10195C00A576636A43F4E0236362FFF74BFAFFF763
:10196C0021F94FF0FF33A362E36207AB6C222946E7
:10197C00184600F0FAFF274C0127A06028468DF886
:10198C002970FFF737FF3846FFF734FF00F0FCF9FA
:10199C00214B66624FF48062CDE90473CDE90255A8
:1019AC001E4B1F49CDE90055304600F097FA737B6A
:1019BC0023F0040213F01B0F727304D1B36913B933
:1019CC00304600F0DFF8174B174D059301220F231B
:1019DC00CDE903320023CDE9013300934FF4A0721B
:1019EC00124B1349284600F079FA6B7BE56023F023
:1019FC0004036B730F4B0A490548C4E906334FF4D3
:101A0C008062064BFFF7B0F8380F002000ED00E0C5
:101A1C0044010020B001002099320000FD180000A4
:101A2C00F80100209E320000D80000208118000030
:101A3C00F8050020C801002010B5084C23685BB1E4
:101A4C00FEF7CCFF2368064A1844106100211846A3
:101A5C00BDE8104001F0E0B910BD00BFE801002066
:101A6C00B0010020F8B50D464FF02003EFF31184C0
:101A7C0083F31188BFF36F8F0D4B4FF4004140F28D
:101A8C00E7360027E1FB006700221A6130464FF46D
:101A9C007A7200233946FEF71BFB064B1860064B87
:101AAC001D60FFF7C9FF84F31188BFF36F8FF8BD7A
:101ABC00B0010020E8010020E40100204FF02003D9
:101ACC00EFF3118183F31188BFF36F8F044B9A6886
:101ADC00D37B013BD37381F31188BFF36F8F7047B6
:101AEC00B0010020094B03F12802824205D19B680A
:101AFC008B4202D14B7BDB0606D1D1E9003213605D
:101B0C005A600023C1E90033704700BFB0010020C8
:101B1C0038B50D4C024604F1280001F0E9F80546F1
:101B2C0000B9E568A3684AB95A7BD20606D1AA69FE
:101B3C0022B9DA897F2A01D9636238BD9D4201D06E
:101B4C00FFF77AFF6562F8E7B001002010B54FF09F
:101B5C002003EFF3118483F31188BFF36F8F084BCD
:101B6C009A68D37B0133D3730020FFF7D1FF84F342
:101B7C001188BFF36F8FBDE8104001F0AFB800BF04
:101B8C00B0010020F8B54FF02003EFF3118483F37C
:101B9C001188BFF36F8F154A114651F8283F8B42BD
:101BAC001DD0E3B1D66A90F90E5093F90E70AF4286
:101BBC0010DD5A68C0E9003210605860437B43F076
:101BCC00400343730020FFF7A3FF84F31188BFF396
:101BDC006F8FF8BDB34202D01B68002BE5D1D36ADE
:101BEC004360D36A01601860D062E7E7B00100205F
:101BFC00F8B504464FF02003EFF3118583F31188F9
:101C0C00BFF36F8F437B5A0603D501461748FFF786
:101C1C0069FF174AD2E90A3002F128018B421FD022
:101C2C00F3B194F90E6093F90E70B74213DD596855
:101C3C00C4E900310C605C60637B906843F0400346
:101C4C006373031B58425841FFF762FF85F31188F9
:101C5C00BFF36F8FF8BD834202D01B68002BE2D11B
:101C6C00C4E90010D36A1C60D462E5E7D8010020F7
:101C7C00B0010020154A164938B50C689368A34288
:101C8C00144603D1BDE83840FFF7D6BE00250D60E1
:101C9C0010490968B9B1D9897F2914D80E4993F92B
:101CAC000E5009688D420EDB0C498B420BD09969A2
:101CBC0049B91169814203DC1846FFF799FFE1E746
:101CCC00091A116138BD00232361FBE7B001002024
:101CDC00E0010020E8010020E4010020D8000020F1
:101CEC0038B504464FF02003EFF3118583F31188C8
:101CFC00BFF36F8F437B5A0607D501460948FFF7A0
:101D0C00F1FE637B23F040036373074B9868031B5E
:101D1C0058425841FFF7FCFE85F31188BFF36F8FD3
:101D2C0038BD00BFD8010020B0010020F8B5461C1A
:101D3C0001F08CF834184FF02003EFF3118783F384
:101D4C001188BFF36F8F0D4D0D4BA8681860FFF70E
:101D5C00C7FFA8680B493246183000F0AFF9AA68E3
:101D6C00537B43F0100353733846FEF75FFE01F0CC
:101D7C006DF8201A20EAE070F8BD00BFB001002019
:101D8C00E0010020092D0000044B002103F1280282
:101D9C00C3E90A220846FFF765BE00BFB001002068
:101DAC00F8B5234C234BA2689A4229D04FF020035C
:101DBC00EFF3118683F31188BFF36F8F04F12805BD
:101DCC00A1682846FFF78EFEA26AA368AA4228D013
:101DDC003AB3E06A93F90E1092F90E708F421BDD44
:101DEC005168C3E900210B6053605A7B42F04002FA
:101DFC005A730120FFF78CFE86F31188BFF36F8FA7
:101E0C004FF02003EFF3118083F31188BFF36F8F32
:101E1C00BDE8F840FEF70ABE824202D01268002AE2
:101E2C00DAD1E26A5A60E26A1D601360E362DCE7B1
:101E3C00B0010020D800002038B5431C044605D161
:101E4C00104B986800F086F8204638BD4FF40045DA
:101E5C0040F2E7300021E5FB04014FF47A720023D5
:101E6C00FEF736F9044648B9FFF79AFF4FF47A703B
:101E7C0084FB0001C40B44EA4144E5E7FFF756FF3D
:101E8C000446F3E7B0010020014B9868704700BF8F
:101E9C00B001002010B502464FF02003EFF311847F
:101EAC0083F31188BFF36F8F437B590704D484F3FA
:101EBC001188BFF36F8F10BD23F00403437300F040
:101ECC004EFF10B11046FFF75DFE21460248BDE8FB
:101EDC00104000F0ECBE00BFF301002030B587B01D
:101EEC0004460E9D04950D9D03950C9D02950B9D2E
:101EFC0001950A9D0095FEF715FE034B9B6803B1F7
:101F0C001B6E236607B030BDB001002010B504462F
:101F1C0000F025FF10B12046FFF7E2FE04F1180097
:101F2C0000F054FF637B43F010036373084B9B6812
:101F3C00A3420BD14FF02003EFF3118083F31188F0
:101F4C00BFF36F8FBDE8104000F0BCBE10BD00BFEA
:101F5C00B001002038B505464FF02003EFF3118493
:101F6C0083F31188BFF36F8FFFF7D0FF074B9B688C
:101F7C00AB4205D121460648BDE8384000F097BE7B
:101F8C0084F31188BFF36F8F38BD00BFB001002000
:101F9C00F30100202DE9F04F284E294D87B0B046B3
:101FAC00B54205F1300410D3FFF788FD244CDFF85F
:101FBC0094A04FF4004940F2E7360027444521D362
:101FCC0007B0BDE8F04FFFF7C1BD54F8043C0593D2
:101FDC0054F8103C049354F8143C039354F8183CF4
:101FEC00029354F81C3C019354F8203C009354E9A0
:101FFC000A2354E90C01FFF771FF54F8303CDD64FF
:10200C002546CDE7616A4B1C04D0256821B92846CA
:10201C00FFF740FF3034D1E7B346BC46E9FB01BCC7
:10202C004FF47A72002358466146FEF751F8514638
:10203C00421C05F1180000F041F8EBE7C40F00203A
:10204C00C40F0020092D0000034B1B680BB9FEF7D1
:10205C00C5BC0020704700BFEC010020036840B1F4
:10206C00074A5268904204D01BB19A6881680A44AE
:10207C009A60426813605A600023C0E900337047CD
:10208C004C0F00200B4B10B51C689C4208BF002461
:10209C00FFF7DAFF54B1A368181A20EAE070064B78
:1020AC001B6913B19842A8BF184610BD6FF00040D1
:1020BC00F5E700BF4C0F0020B001002070B50446BE
:1020CC001646C1604FF02003EFF3118583F311889E
:1020DC00BFF36F8FFFF7B8FF184B1A68012EACBF18
:1020EC00801901309A42A06001D05E6832B95A68FA
:1020FC0062605A68236014605C600AE09068A168B2
:10210C00884215DD411A91605168C4E900210C60C8
:10211C0054601A689A4206D0944204D1FFF7B2FF79
:10212C000021FEF705FC85F31188BFF36F8F70BD9E
:10213C00091AB242A160DAD01268D7E74C0F00201E
:10214C002DE9F04B0446FFF795FD4FF02003EFF31C
:10215C00118583F31188BFF36F8F214E214FDFF868
:10216C0088903460B846D9F8004032684C45D7E9BD
:10217C0000BC05D024B1A368934214DD9B1AA36064
:10218C001BEB02004CEBE2710024C8E90001346047
:10219C00FFF778FF2146FEF7CBFB85F31188BFF3E1
:1021AC006F8FBDE8F08B1BEB03004CEBE371D31A84
:1021BC0033600023C7E90001A3602046FFF74EFF00
:1021CC0085F31188BFF36F8FE36898474FF02003B6
:1021DC00EFF3118583F31188BFF36F8FC3E700BF53
:1021EC00EC010020000000204C0F00202DE91848C5
:1021FC004FF02003EFF3118483F31188BFF36F8F3B
:10220C00FEF7ECFB074BD3E9002312EB000B43F179
:10221C00000C5846614684F31188BFF36F8FBDE8FC
:10222C00188800BF0000002038B5074C074DAC42A1
:10223C0001D3002038BD04F114032046C4E9053352
:10224C0000F090F81C34F2E7C40F0020C40F0020FB
:10225C004FF4FA70FFF7F0BD10B41346426854689F
:10226C000A46A446002110BC604738B50446154602
:10227C000846FFF7D9FA0123C4E900052372426826
:10228C00002114682A46A047002038BDF8B59DF8F7
:10229C00184004720F461646D0E9000122461D462E
:1022AC00FFF7DAFF2246D7E900013C72FFF7D4FFB3
:1022BC002246D6E900013472FFF7CEFF2C7222467B
:1022CC00D5E90001BDE8F840FFF7C6BF2DE9F8439A
:1022DC000E4615469DF824909DF820209DF82880E8
:1022EC000272D0E900011C469DF82C70FFF7B4FF78
:1022FC004A46D6E9000186F80890FFF7ADFF424642
:10230C00D5E9000185F80880FFF7A6FF27723A4649
:10231C00D4E90001BDE8F843FFF79EBFF8B50446C9
:10232C0015461E460846FFF77FFA25612060436874
:10233C002A461F6800214FF49B73B847012220687E
:10234C00A66002FA05F3E3604368DB68211D03B164
:10235C009847206843681B6913B12A4600219847A7
:10236C000020F8BD2DE9F04F46680789016890F808
:10237C000A80FF2306FB07FCC3726144324600232C
:10238C004FF00C09984505DC002319468F4220DCE0
:10239C00BDE8F08FD0F80CA0BCFBF2F509FB03FEF6
:1023AC000AEB0E0404F1040B202DC4E901BB05D883
:1023BC00C372920822F003020133E3E715F11F0404
:1023CC0048BF05F13E0464114AF80E1001EB84017C
:1023DC00EFE7C268056802F1040CEC1845F803C07D
:1023EC0095686560956801312C6033449460CDE745
:1023FC00044608B5084611461A46A047FFF744FDA7
:10240C00FEF70CFD0020704770B504460D464520C4
:10241C00A04729465220A047294623465220BDE812
:10242C00704018472DE9F04F8BB01C464FF0000858
:10243C00531E06460F4602934FF0FF3AC146002545
:10244C0005E06DB9252800F04F813946B047029B55
:10245C0013F8010F02930028F3D10BB0BDE8F08FF5
:10246C0064286ED01AD839280AD8312860D22D2881
:10247C0000F0408130284CD0252807D139460BE09C
:10248C00582800F0BB80632800F02A8139462520AB
:10249C00B047029B18783946B047D0E7702800F057
:1024AC00A38011D869284CD06C2805D1B8F16C0FD9
:1024BC002AD14FF04C08CAE76828E7D1B8F1680F69
:1024CC0022D14FF04808C2E7752871D018D873286C
:1024DC00DCD154F8045BAB465B461BF8010B0028BF
:1024EC0040F0FB80B9F1030F40F00A815D1BAAEBB1
:1024FC000505002DA3DD39462020B047013DF8E746
:10250C0078287BD07A28C1D1B8F1000FBED1804693
:10251C009DE7BAF1000F0EDAB9F1000F00F0ED8073
:10252C00A0F1300AB9F1000F08BF4FF002098EE795
:10253C00BAF1000FF4DB0A2303FB0A0AAAF1300AF2
:10254C00F0E7B8F17A0F02D154F8045B1FE0B8F150
:10255C006C0FF9D0B8F14C0FF6D1073424F0070406
:10256C00F4E8022312F10041069143F100010791B6
:10257C00DDE906BC00214FF0FF30614508BF58452E
:10258C0004D239463046FFF73FFF58E71546002D79
:10259C0005DA39462D20B0476D420AF1FF3ACDF8E5
:1025AC0000A04B462A4639463046FEF79DF846E7D2
:1025BC00B8F17A0F02D154F8042B11E0B8F16C0F7A
:1025CC00F9D0B8F14C0FF6D1073424F00704F4E835
:1025DC00022300214FF0FF30994208BF9042D0D324
:1025EC00CDF800A04B46DEE739463020B0473946DF
:1025FC007820B0474FF0080A4FF00109029B1B7876
:10260C00702B04D154F8043B049300230DE0B8F173
:10261C006C0FF7D0B8F14C0FF4D1073424F007034A
:10262C001C465B6854F8082B04920021102203917D
:10263C0005914FF0400BABF1040B0498CBF1200C3F
:10264C00ABF1200120FA0BF003FA0CFC40EA0C0071
:10265C0023FA01F1084310F00F0008D1059911B9C4
:10266C00BBF1000F24D1302105E00595E3E70928E3
:10267C008CBF57213021084440B23946089305924B
:10268C00B047039B059A01330393089BBBF1000FE2
:10269C00EBD1B9F1030F7FF4D2AE039BC3EB4A0528
:1026AC00002D7FF7CCAE39462020B047013DF7E72F
:1026BC00511E9245089107DBB9F1010F06D1099320
:1026CC0039463020B047099B089AB4E7B9F1020F9C
:1026DC00FAD1099339462020F4E73946B047FBE696
:1026EC00394654F8040BD7E6A846A9464FF0FF3AF2
:1026FC000125ACE64FF00309A9E64FF00109A6E667
:10270C000546A4E60FB407B504A951F8040B0191D2
:10271C00FEF73CF803B05DF804EB04B0704770476B
:10272C0083685A7A22B9187AB0FA80F04009704757
:10273C000220704783680020C3E90000704738B559
:10274C0084680123054663724FF02003EFF3118177
:10275C0083F31188BFF36F8F23682BB160681A68FD
:10276C002260834208BF626081F31188BFF36F8FD0
:10277C0003B938BDD3E9012128469047E4E7F8B501
:10278C00036806469D68836832B119688A424CD04A
:10279C0011B109680029F9D14FF02000EFF3118134
:1027AC0080F31188BFF36F8F1C7A0134E4B21C7272
:1027BC0081F31188BFF36F8F0AB34FF08041032070
:1027CC00C1F80803597A81B94FF02000EFF3118753
:1027DC0080F31188BFF36F8F11605868D0B9C3E9CB
:1027EC00002287F31188BFF36F8F4FF080430320D3
:1027FC00C3F8040319B1D2E9013130469847012CD2
:10280C0006D12B684BB9AB7A03F1804301221A60D5
:10281C0000200CE002605A60E3E73046984700283D
:10282C00F1D13046FFF78BFFF2E76FF00F00F8BDE8
:10283C000022FFF7A4BF002210B501210446104668
:10284C00FEF758F90020FEF745F94FF080430122BE
:10285C00C3F818250322C3F80423A3680020C3E996
:10286C00000010BD026873B5956884684FF02003B2
:10287C00EFF3118683F31188BFF36F8F237A03B3C1
:10288C00013BDBB22372FBB9C4E900336B68A3B91B
:10289C00EB7A03F1804301221A602B8903F1804308
:1028AC0000221A601B680193019B0020607286F362
:1028BC001188BFF36F8F02B070BD98470028E7D125
:1028CC00F3E76FF04400F2E70020F0E77047704741
:1028DC00FEF774B900F0B8B90146006800F0B4B95D
:1028EC0008B5FEF775F9BDE80840FEF791B807B5D5
:1028FC00002101A8FEF762FB03B05DF804FB013870
:10290C00013910F8013F11F8012F934201D1002B2E
:10291C00F7D1981A7047F0B581EA0004A507034671
:10292C000BD0013B0A4491421AD1F0BD002AFCD0D5
:10293C0011F8014B03F8014B013A9C07F6D19508AD
:10294C00AC001E1F0F19B94205D16FF0030606FB30
:10295C0005222344E5E751F804CB46F804CFF2E70F
:10296C0011F8014B03F8014FDDE770B5C9B203460E
:10297C009C0710D141EA012444EA0445940803EB76
:10298C008406B3420DD16FF0030505FB04241C44EF
:10299C00A34209D170BD002AFCD003F8011B013AF7
:1029AC00E6E743F8045BECE703F8011BF0E74FF0B4
:1029BC00FF307047FEF7F4BD10B504688068A4685A
:1029CC00C0692468012904D15840C4F804050020CA
:1029DC0010BD003320FA02F04FF0010118BF0123A3
:1029EC0000F001009140834214BFC4F80815C4F8EC
:1029FC000C15ECE770B504688068A468C06925689C
:102A0C00D5F81465D5F81045D5F8045560406C40E0
:102A1C003440604001291CBFD04000F00100186018
:102A2C00002070BD8368186830B558B1002481420D
:102A3C0013D108685CB95C681860A14200D1586079
:102A4C000020086072B9002030BD2846EFE72060F6
:102A5C005868814208BF5C60F2E705680446002DA7
:102A6C00F3D13AB11A680A60586819600028EAD1A3
:102A7C005960E9E76FF01500E6E72DE9F74F80465E
:102A8C00856803F47040B0F5804F1E4641D009DCD8
:102A9C00B0F5805F3FD0B0F5405F3ED090B16FF0A5
:102AAC00150033E0B0F5E04F39D004DCB0F5A04FA1
:102ABC00F5D1032006E0B0F5404F32D0B0F5504FC1
:102ACC00EDD1072006F44077B7F5807F2BD0A7F522
:102ADC0000746342634106F0010C4FEA4C07012974
:102AEC0047EA0C0718BFD4B247EA002040EA830734
:102AFC0012BFA1464FF01F0900244FF0A04A4FF01F
:102B0C00010B06F00203A1450FD2002003B0BDE873
:102B1C00F08F0220D6E70120D4E70420D2E705206D
:102B2C00D0E70620CEE70323D5E7D8F8002092683B
:102B3C00117904F01F0242EA411202F5E0724AF8E0
:102B4C0022700BFA04F2A968002B25D01143A9605E
:102B5C0069690193B0064CBF114391436961A9693E
:102B6C0070064CBF11439143A961296970074CBF92
:102B7C00114391432961E96930064CBF0A4321EAAC
:102B8C000202EA6121464046FEF764FA0028BDD1F4
:102B9C000134E4B2019BB6E721EA0201D7E701292F
:102BAC002DE9F04118BFD4B28768064612BF2546FE
:102BBC001F2500244FF00108AC4202D90020BDE8CB
:102BCC00F081FB6808FA04F223EA0203FB60214659
:102BDC003046FEF73FFA0028F1D10134E4B2EBE7BE
:102BEC0001292DE9F04118BFD4B28768064612BFFF
:102BFC0025461F2500244FF00108AC4202D90020C5
:102C0C00BDE8F081FB6808FA04F21343FB6021462F
:102C1C003046FEF71FFA0028F2D10134E4B2ECE79B
:102C2C0082680B4692E8030083E80300002070479B
:102C3C004FF02002EFF3118382F31188BFF36F8FF3
:102C4C00FEE708B5FFF7F4FF70B505460E46FFF733
:102C5C001BF9314604462846FFF7F3FF2046BDE832
:102C6C007040FEF7DBB8FFF732BE437BDB0603BFD9
:102C7C008069B0FA80F040090020704738B50446EE
:102C8C004FF02003EFF3118583F31188BFF36F8F9F
:102C9C0001468068FEF726FF637B23F00203637313
:102CAC0085F31188BFF36F8F0023A36038BD21B962
:102CBC00EFF3058008B9FDF7B9BE81F31188BFF3B6
:102CCC006F8F7047034620B9EFF305820AB9FDF701
:102CDC00ADBE83F31188BFF36F8F70474FF02003A5
:102CEC00EFF3118083F31188BFF36F8FFFF7EABF07
:102CFC000368984214BF18460020704750F8103CE7
:102D0C0070B50446A0F11805CBB14FF02003EFF3DA
:102D1C00118683F31188BFF36F8F294650F8100C7E
:102D2C00FEF7E0FE14F80B3C23F0020304F80B3C16
:102D3C0086F31188BFF36F8F002344F8103C14F80E
:102D4C000B3C23F0140304F80B3C2846FFF78DFFD3
:102D5C0020B12846BDE87040FEF714BF70BD437B20
:102D6C00DB0603BF8069B0FA80F040090020704791
:102D7C0010B5029C04738373042400234473C3733F
:102D8C00C0E90633C0E91333C0E9161210BD036D58
:102D9C0010B5044603B198472046FFF7E0FF38B161
:102DAC002046FEF79DFF637B43F00803637310BD61
:102DBC00637B9B0702D52046FFF760FFA369002BBE
:102DCC00F1D004F1180000F001F8ECE710B54FF069
:102DDC002002EFF3118482F31188BFF36F8F036825
:102DEC003BB1FFF73BF9002084F31188BFF36F8FE1
:102DFC0010BD6FF01500F7E710B54FF02003EFF39F
:102E0C00118483F31188BFF36F8FFFF73BF984F3C1
:102E1C001188BFF36F8F10BD70B504460E464FF08E
:102E2C002003EFF3118583F31188BFF36F8FFFF746
:102E3C0029F9012805DDA04203DD31462046FDF7C6
:102E4C0077FD85F31188BFF36F8F70BD08B5FFF761
:062E5C00CDF908BD70472E
:022E6200FFFF70
:082E6400ACD2FF7F0100000069
:102E6C00000000001108000000000000DD28000038
:102E7C0000000000DD28000000000000DD2800003C
:102E8C0000000000DD28000000000000DD2800002C
:102E9C0000000000C111000000000000DD2800004F
:102EAC0000000000DD28000000000000DD2800000C
:102EBC0000000000DD28000000000000DD280000FC
:102ECC0000000000DD28000000000000DD280000EC
:102EDC0000000000DD28000000000000DD280000DC
:102EEC0000000000DD280000000000007908000050
:102EFC0000000000DD28000000000000DD280000BC
:102F0C0000000000DD28000000000000DD280000AB
:102F1C0000000000DD28000000000000DD2800009B
:102F2C0000000000DD28000000000000DD2800008B
:102F3C0000000000DD28000000000000DD2800007B
:102F4C0000000000DD28000000000000DD2800006B
:102F5C0000000000DD28000000000000DD2800005B
:102F6C0000000000DD28000000000000DD2800004B
:102F7C0000000000DD28000000000000DD2800003B
:102F8C0000000000DD28000000000000DD2800002B
:082F9C0000000000DD28000028
:102FA400BE300000F5070000000000001C320000E5
:102FB4004127000030300000263200004328000082
:102FC4002430000030320000B90800000000000086
:102FD400BE300000590F000000000000BE300000A9
:102FE40001100000000000000C310000311000004E
:102FF4007830000015320000FD1400004932000052
:0C300400BE30000035220000000000007B
:103010003D280000712800008B2700000000000000
:103020002D27000000000000000000000001000447
:1030300000000000000000000401080C0200000075
:1030400044300000000000003A3200002400020773
:1030500000000020423200001E000B11872A0000F1
:10306000C5290000012A0000312A0000ED2B0000D4
:10307000AB2B00000000000000000050000000002A
:103080009D140000C914000021130000311300003A
:103090002D2C0000580F0020AC0F0020B80F00208E
:1030A000C40F0020C40F0020F5FFFFFF42757474A9
:1030B0006F6E20302070726573736564210A004260
:1030C0007574746F6E20312070726573736564213E
:1030D0000A00427574746F6E2032207072657373CB
:1030E0006564210A00427574746F6E20332070721B
:1030F0006573736564210A00496E696369616C696F
:103100007A616E646F204C4544730A004750494F02
:103110005F30004C454453206F6B0A00496E696371
:1031200069616C697A616E646F206F7320426F749D
:10313000C3B565730A00426F74C3B56573204F4B06
:103140000A0043757272656E742053657175656E01
:103150006365205B25635D207C2056616C7565206E
:1031600053657175656E63655F30205B25645D0A2C
:103170000043757272656E742053657175656E6378
:1031800065205B25635D0A0043757272656E74206D
:1031900053657175656E6365205B25635D207C20DA
:1031A00056616C75652053657175656E63655F3139
:1031B000205B25645D0A0043757272656E7420534E
:1031C000657175656E6365205B25635D207C2056A7
:1031D000616C75652053657175656E63655F32203E
:1031E0005B25645D0A0043757272656E74205365D9
:1031F0007175656E6365205B25635D207C2056617B
:103200006C75652053657175656E63655F33205B12
:1032100025645D0A00554152545F3000434C4F43D2
:103220004B5F33324B00434C4F434B5F31364D00C5
:103230007379735F636C6F636B00464C4153485FF7
:1032400030005352414D5F3000010100000000008A
:1032500001017A65706879722D76322E312E302D0B
:103260003331372D67303733653062373764366432
:1032700062002A2A2A20426F6F74696E67205A659D
:1032800070687972204F53206275696C64202573D1
:10329000202573202A2A2A0A006D61696E0069645C
:0432A0006C65000059
:1032A40011240000BB29000000C20100000103003A
:0D32B4000090D0034C0F00204C0F00206153
:0332C100FFFFFF0D
:1032C400E02F0000000000000000000004300000B7
:1032D4000000000000000000D42F000000000000E7
:1032E40000000000BC2F0000103000009C000020F3
:1032F400B02F000010300000A8000020F82F0000BC
:1033040080300000400F0020A42F000000000000C7
:1033140000000000C82F00000000000000000000B2
:0C332400EC2F00005C300000B80000201E
:10333000C40F0020C40F00200000000000000000A7
:043340000F0000007A
:0400000300000C519C
:00000001FF
